:040000006F003078E5
:100004000000000000000000C8020000CA02000056
:1000140000000000800F000000000000000000004D
:10002400800F0000800F00000000000000000000AE
:10003400800F000000000000800F0000000000009E
:10004400800F0000800F0000800F0000800F000070
:10005400800F0000800F0000800F0000800F000060
:10006400800F0000800F0000800F0000800F000050
:10007400800F0000800F0000800F0000800F000040
:10008400800F0000800F0000800F0000800F000030
:10009400800F0000800F0000800F00000E0300009E
:1000A400800F0000800F0000800F0000800F000010
:1000B4006A030000800F0000800F0000800F000022
:1000C400800F0000800F0000800F0000800F0000F0
:1000D400800F0000800F0000800F0000800F0000E0
:1000E400800F0000800F0000800F0000800F0000D0
:1000F400800F0000800F0000800F0000800F0000C0
:1001040000000000800F0000800F0000800F00003E
:10011400800F0000800F0000800F0000800F00009F
:10012400800F0000800F0000800F0000800F00008F
:10013400800F000062030000800F0000800F0000A9
:10014400800F0000800F0000800F0000800F00006F
:10015400800F0000800F0000800F0000800F00005F
:10016400800F0000800F0000800F0000800F00004F
:10017400800F0000800F0000800F0000800F00003F
:10018400800F0000800F0000800F0000800F00002F
:10019400800F0000800F0000800F0000800F00001F
:1001A400000000000000000000000000000000004B
:0C01B4000000000000000000000000003F
:1001C000397101436EC619A0397141536AC866CAB4
:1001D00062CC5ECE19A0397101535AD056D252D496
:1001E0004ED64AD826DA22DC06DE3301614082820E
:1001F00041114AC026C222C406C68282B24D4101C4
:10020000024D924C224CB24B4101024B924A224A7F
:10021000B2494101024992442244B24041018280E4
:100220003D432A876373C3029377F700BDEFADE5C3
:10023000937606FF3D8ABA960CC34CC30CC74CC7D5
:100240004107E36BD7FE11E28280B306C3408A0602
:100250009702000096966780A6002307B700A306C2
:10026000B7002306B700A305B7002305B700A30412
:10027000B7002304B700A303B7002303B700A3020A
:10028000B7002302B700A301B7002301B700A30002
:10029000B7002300B700828093F5F50F9396850091
:1002A000D58D93960501D58D61B79396270097025A
:1002B000000096968682E78086FA9680C1171D8F89
:1002C0003E96E374C3F8A5B701A037E50000130517
:1002D000C5B9EFB0A000EF20503AAA8537E500007D
:1002E000130505BBEFA0D07AEF209039AA8537E53A
:1002F0000000130505BCEFA0B079EF20D038AA8527
:1003000037E50000130505BDEFA0907801A0397115
:1003100006DE16DC1ADA1ED82AD62ED432D236D011
:100320003ACE3ECC42CA46C872C676C47AC27EC0B5
:10033000EF20600513050008EF10A019F250E252FB
:100340005253C2533255A255125682567247E24753
:100350005248C248324EA24E124F824F2161730062
:100360002030EF20E060730020302945EF1010248A
:10037000854537050040EF10100D73002030B7079A
:100380000020938707001387071088C39107E39E17
:10039000E7FE8280EFF23FE40111AA8A2E8A21450E
:1003A000854502C202C402C602C802CA02CC02CEFD
:1003B000EF108062854537054000EF10C063B71429
:1003C000014013040040F1490D494C00138504C05D
:1003D00060824EC64AC4EF1060108567938707801D
:1003E0004C00138504C07C824EC64AC4EF10000F37
:1003F000B707FFBFE085A907376400403ECA0C0875
:10040000916713050480FC8656C8231C4101EF1038
:10041000C026854513050480EF1000360561F5B34D
:10042000EFF21FDD4111BD477C8237150140D147F6
:100430003EC64C008D47130505803EC423130100C2
:10044000EF10C0094101F9B3EFF2FFD83764004063
:100450002A8993040480B70502002685EF10603BCB
:100460007DF913050480854537040300B764004017
:10047000EF100032050493890480A2854E85EF10A9
:10048000E03765DD1385048001469305000B3704D2
:100490000700B7640040EF10403513042408938927
:1004A0000480A2854E85EF10603565DD9375F90FE8
:1004B0001385048037040700B7640040EF10203232
:1004C0001304440813890480A2854A85EF10003381
:1004D00065DD13850480854537040300B76400405B
:1004E000EF10002B050413890480A2854A85EF10C4
:1004F000E03065DD1385048005469305000BB704E5
:10050000030037640040EF10402E89041304048078
:10051000A6852285EF10802E65DD37040010B764B4
:1005200000401304040413890480A2854A85EF1057
:10053000402E21C513850480EF10A02A3709001032
:10054000B76400402A8A1309090493890480CA8584
:100550004E85EF10002C1DC513850480EF10602818
:100560002A84854513850480EF1020241315840008
:10057000336545014205418149B985454A85EF10FA
:10058000602465B781454E85EF10C023C9B719C9EE
:10059000EFF21FC6AA8537E50000130505D5EFA0C9
:1005A000304F8DB98280EFF2BFC4411185450545BA
:1005B00002C202C423160100EF10E04383A70181A9
:1005C00037470F0013070724B3D7E7024C0037055E
:1005D0000040231501007C8489679387F7703EC231
:1005E000EF10604C0546854537050040EF10E0638D
:1005F000854537050040EF106060854537050040B0
:10060000EF106064B7E700E0056723A2E71041013F
:1006100011B1EFF2FFBD39711306C00381454800E7
:10062000013183D7C180138461863ED64C008D474B
:10063000138561863ED0EF4080590C20AA8437E5AF
:100640000000130505BEEFA0B044268589370820B9
:10065000EF4050582D3F216175BEEFF2FFB65D713E
:1006600081452A8CEF40100CAA85AAC237E500000C
:10067000130505C2EFA0D04137040020D000930538
:10068000C4436285EF40807BB7E500001546938543
:1006900045C31305C443EFD0C03001C9371501402D
:1006A000894513050580EF00B06FB7E500001546DA
:1006B0009385C5C31305C443EFD0A02E01C93715D8
:1006C0000140894513050580EF00506DB7E5000036
:1006D0001946938545C41305C443EFD0802C15E912
:1006E000B7050020194693852544A80082C4231627
:1006F000010423070104EFD0402D41468145A800A5
:10070000EFD06042AD393705002013050500EF201A
:10071000404F37E500009305C4431305C5C4B72413
:10072000002093844467EFA0B03603A5042237EB82
:10073000000037ED00001375F57FEFC0B065B7E737
:10074000000003A687BF83A6C7BFEFC0A01A2A89EF
:1007500003C54422AE89EFC0F06303260BC0832695
:100760004BC0EFC020192ADC03A5C4222EDEEFC047
:10077000706203268DC08326CDC0EFC0A01783AC66
:1007800004232AD82EDA13C5FCFF2D817D89EFC002
:100790007060AE86B7E500002A8603A505C183A573
:1007A00045C1EF20A06E2A8A03A50423AE8A1375E3
:1007B000F57FEFC0305E03260BC083264BC0EFC031
:1007C00060132A8B03A5C422AE8BEFC0B05C032656
:1007D0008DC08326CDC0EFC0E0112A86AE865A8533
:1007E000DE85EFC020112AD02ED203A5042437EBDA
:1007F0000000EFC0305A2ACC2ECE03A584231375F7
:10080000F57FEFC0305903268BC18326CBC1EFC0E3
:10081000600E2AC82ECA03A544239304F00F137553
:10082000F57FEFC0305703268BC18326CBC1EFC0C5
:10083000600C2AC413F5FC7F2EC6EFC0B05552865B
:10084000D686EFB0101303268BC18326CBC1EFC031
:10085000600A4258D2582AC02EC26257F257B7E5F2
:1008600000004A86CE86938505C51305C443EFA0D4
:1008700070241305C443EFD0A0112A891304C44384
:10088000A285D0006285CAC2EF40F0129647FD14DF
:1008900093F4F40F3309F9403E9499C0E31209FE32
:1008A0006161B9BAEFF23F9393F745002A842E892C
:1008B00091C3653393778900BDC785452285EF4095
:1008C000302C0566130686B6B305C402B7170020A0
:1008D000938747FA2285BE95EF40205103C7818652
:1008E0009307F00F938481866305F70A983089494E
:1008F0006316F70085498547A69780A337E5000072
:10090000130585D0EFA0901DCE948C2037E5000014
:10091000130505D2EFA0D0173715014091451305F7
:100920000580EF00F047937709019DCB03C78186CF
:10093000938781866302870698336316870005478D
:10094000BA977D5798A337E50000130505D3EFA0AC
:10095000F01837150140914513050580EF0010444C
:10096000137909046305090203C781869387818689
:10097000630687029833631687000547BA977D5749
:1009800098A337E50000130505D4EFA030156FF0EC
:10099000DF87814981478DB701475DB70147F9BFBF
:1009A000EFF21F85EF405019937715002A8499C7FD
:1009B00037E50000130585CBEFA050129377240094
:1009C00099C737E500001305C5CCEFA03011937728
:1009D000440095C3EF40301A118921C137E500006A
:1009E000130545CEEFA0900F37150140A145130523
:1009F0000580EF00F03A418819CC0145EF40101511
:100A0000AA8519C10145793D0545EF403014AA85F5
:100A100019C10545413D6FF0EFFF37E500001305B3
:100A200085CFC9B7EFF2CFF959713521EF204032A8
:100A3000716513050520EF20C03A37E50000130566
:100A400005D6EFA0B00983A5018137E500001305A5
:100A500005D7EFA0F0036D2BAA8537E5000013053D
:100A600005D8EFA0F002EF406010AA8537E500003E
:100A7000130505D9EFA0D001EFF09F9AEF20800871
:100A80004165130505F0EFF09F8F37050020130532
:100A90000500EF200017EF40600DE5476308F50003
:100AA00037E50000130505DAEFA050031385018632
:100AB000EF10C02D37E50000130505DBEFA0407DEA
:100AC0008144138A0186B7E900001949B3079A00E7
:100AD0008C231385C9DB8504EFA0807BE39824FF7A
:100AE0002945EFA02000C134B70500209386018678
:100AF000138681809385052F13854180EF10307810
:100B00002A84713419E437E50000130505DCEFA0F1
:100B1000E07C9567938707E2BED29167938787A9A8
:100B2000C810BED4A547BED6EF30F06F7D572394D2
:100B3000E186C5346165C1451305056AEFF09F85FF
:100B400037140140854513050480EF0030258945A1
:100B500013050480EF009024914513050480EF00F5
:100B6000F023A14513050480EF005023B7E70000F0
:100B700003A8C7BF83A787BFB7E40000C2C2BEC037
:100B8000B7E7000003A847C183A707C103AD84C12D
:100B900083ADC4C137E90000B7E900003EDC42DEA6
:100BA0003724002013044467032504221375F57FBE
:100BB000EFC0501E06469646EFB0D0532A8C034530
:100BC0004422AE8CEFC0101DB7E7000003A607C09B
:100BD00083A647C0EFB01052AACC0325C422AECEE4
:100BE000EFC0501BB7E7000003A687C083A6C7C0AD
:100BF000EFB0505003230423AAC8AECA1345F3FF35
:100C00002D817D899AC6EFC0F0182A86AE8662557E
:100C1000F255EF20A0272A8A03250423AE8A1375F4
:100C2000F57FEFC03017032609C0832649C0EFB017
:100C3000704C2A8B0325C422AE8BEFC0B01503A6DF
:100C400089C083A6C9C0EFB0F04A2A86AE865A850D
:100C5000DE85EFB0304A2AD02ED203250424EFC01F
:100C600070132ACC2ECE032584231375F57FEFC095
:100C700070126A86EE86EFB0F0472AC82ECA0325A6
:100C800044231375F57FEFC0F01003A684C183A63B
:100C9000C4C1EFB0304636432AC42EC61375F37F65
:100CA000EFC0500F5286D686EFB0A04C03A684C189
:100CB00083A6C4C1EFB010442EC24648D64866474A
:100CC0002AC0F64737E500006286E686130585DD13
:100CD000EFA0005C13058008EFF00FF72320A4229B
:100CE0002945EF20A00C13059008EFF0EFF5232223
:100CF000A4222945EF20800B1305B008EFF0CFF4B4
:100D00002326A4222945EF20600A1305C008EFF02E
:100D1000AFF32328A4222945EF2040091305D0086A
:100D2000EFF08FF2232AA4222945EF202008130593
:100D3000E008EFF06FF1232CA4222945EF200007F3
:100D400013050009EFF04FF02320A424EF10D0206A
:100D5000EF40A05AE30605E4A13199B5B717024068
:100D60009843B706FFF041111367170098C3D843A3
:100D700037060200758FD8C39843B706F7FEFD16F5
:100D8000758F98C39843B706FCFFFD16758F98C3FF
:100D9000D843B70601FFFD16758FD8C39843B70631
:100DA00000ECFD16758F98C33707FF0098C723A680
:100DB000070202C402C69843C166558F98C3B7168E
:100DC000024005679C42F18F3EC6A24785073EC49C
:100DD000B24781E7A247E397E7FEB71702409C437B
:100DE0001397E7006357070685473EC63247854796
:100DF000631FF704B7170240D843B706C1FFFD16BB
:100E0000D8C3D843D8C3D84313670740D8C3D843FF
:100E1000758FD8C3D843B7062900558FD8C39843D8
:100E2000B7060001558F98C3984393166700E3DD1A
:100E300006FED843B7160240719BD8C3D843136748
:100E40002700D8C32147DC42B18BE39EE7FE410176
:100E5000828002C661BFB7160240D8421146318B6C
:100E6000938701816305C70021466308C7023717CE
:100E70007A001307072098C337170240584311839D
:100E80009376F700370700201307071036971423CF
:100E900098433357D70098C38280D842D4424166E2
:100EA00049833D8BF18E1306270015CF3D47630F15
:100EB000E6024147630FE602454781456313E600BA
:100EC0004146A1E23747024003270780418B0DC707
:100ED00037177A00130707203306C70290C3C9DD0E
:100EE0009843058349BF81454946E1BF854535465D
:100EF000C9BF81453D46F1B737173D00130707903D
:100F0000E1BF3715024058559316F700585563DF77
:100F1000060411833D8B9306170037177A001307D9
:100F200007203357D70298C35455A182BD8A8DE25A
:100F300095463307D702058398C3371702405857A1
:100F400094433D8B050733D7E60298C3984369B7AE
:100F500005456394A600E546E9BF3D456396A600B6
:100F6000D1463387E602C9BF8906E5BF3D8B9306AC
:100F7000170037177A00130707203357D702F1B746
:100F800001A0970100209381E1B617F10020130121
:100F9000610717D500001305A53197F5FF1F93854D
:100FA00065061386018663FAC5008322050023A027
:100FB000550011059105E3EAC5FE13850186978565
:100FC00000209385E5436377B500232005001105D4
:100FD000E36DB5FEFD42739002BCAD42739042805A
:100FE000B7620000938282087390023097F2FFFF8D
:100FF0009382820193E2320073905230EFF01FD659
:1010000097020000938242A2739012347300203042
:10101000B7F7FF1F03A5477082801C41416779170E
:10102000F98F1CC12320050023220500232405007D
:10103000B707024023260500138787006317E500E2
:10104000D8431367F700D8C382801387C70163169C
:10105000E500D8431367070FFDB71387070363182D
:10106000E500D8438566938606F0558FE9BF138760
:1010700047046315E500D843BD66C5BF13878705E0
:101080006316E500D843B7060F00C5B71387C70638
:101090006316E500D843B706F000C1BF1387070801
:1010A0006316E500D843B706000FC1B71387874022
:1010B0006319E50003A747401367F70023A2E74041
:1010C00082801387C7416317E50003A74740136772
:1010D000070FEDB793870743631BF500B70702407F
:1010E00003A747408566938606F0558FC1BFB707B3
:1010F0000240138747446316E50003A74740BD66D7
:10110000EDB7138787456317E50003A74740B70688
:101110000F00E1BF1387C7466317E50003A74740E9
:10112000B706F000D9B7138707486317E50003A790
:101130004740B706000F55BF138707496319E500FD
:1011400003A7474D1367F70023AAE74C8280138754
:10115000074A6317E50003A7474D1367070FEDB76D
:101160001387074B6319E50003A7474D85669386F0
:1011700006F0558FD1BF1387074CE319E5FC03A791
:10118000474DBD66FDB71C4161773D0794517D8F8A
:101190009C45D58F9449D58FD449D58F944DD58F03
:1011A000D44DD58FD451D58F9455D58FD98F1CC19F
:1011B000DC455CC19C411CC5DC415CC582801C4196
:1011C00089C593E717001CC1828041677917F98FA1
:1011D000DDBF4CC182809317350063DA0700B70783
:1011E000024083A707407D8D3335A000828093178E
:1011F000250063D70700B707024083A7074DE5B76F
:10120000B70702409C43C5B79317350063D7070063
:10121000B707024023A2A74082809317250063D717
:101220000700B707024023AAA74C8280B7070240F5
:10123000C8C38280EFE2DFFB85451165EF00D00473
:1012400081451165EF0050046FE0DFFC9307000457
:101250003CC1930700027CC1930700087CD1232086
:101260000500B707000423220500232405002326D8
:10127000050023280500232A0500232C0500232E22
:10128000050023200502232205022324050223262C
:10129000050223280502232A0502232C0502232EFA
:1012A0000502232405042326050423280504232AF4
:1012B0000504232C0504232E0504232005062324DE
:1012C00005062326050623280506232A0506232CC2
:1012D0000506232E05062320F508B7070002232262
:1012E000F5082322F50AB707020037072000232656
:1012F000F50A93070010232405082326E508232870
:101300000508232A0508232C0508232E0508232079
:10131000050A2324050A2328F50A232A050A232C73
:10132000050A8280411102C6B78602409C4A416785
:101330002E057D17F18B798D9A055D8D93F5057CD2
:10134000C98D93E51500B70750008CCAF9173247CD
:1013500005073AC6984A058B01C73247E3F9E7FE0D
:101360003247B7075000FD1701456307F700B787FD
:101370000240C84B42054181410182804111B7873B
:10138000024002C6984BC166FD162E05758D718B05
:101390009A05598D93F5057CC98DD0CB93E5350021
:1013A0008CCBB7070500B7860240F917324705070F
:1013B0003AC6984A058B01C73247E3F9E7FE324542
:1013C000B7070500FD173335F5004101828023A8DA
:1013D000A1862A878147B708104013030060130EC7
:1013E000F6FF6396C700B797024088CB8280B3862A
:1013F0006702232017012A88AE9614C793060701B7
:1014000063F3C70136882326070185073687D1BFD6
:10141000916623A6A1860147AA8737030080938699
:101420000660130E0060930EF6FF6316C700B797B1
:101430000240C8C782803308C70323A06700D4C313
:10144000AA882E9823A40701138807016373D70184
:10145000C28823A617010507C287C1BF379702407C
:101460001C4393E717001CC38280B7970240C8CB88
:101470008280379702401C4FB7061000D58F1CCFD3
:101480008280EFE2FFD6378402401C4093E787005A
:101490001CC0C5371C40896693E747001CC0B7973E
:1014A0000240984F558F98CF984F1367270098CFD9
:1014B0006FE05FD699C5379702405C4F5D8D48CF8E
:1014C0008280B7970240D84F1345F5FF798DC8CF7A
:1014D0008280B707014023AAA74082809C4513F76A
:1014E000070113F8F70001C7D8413368E8008E21DF
:1014F00013F7F50F39C318418146854E3D4F930FC1
:10150000800293028004214E3396DE00B3F8C500BA
:10151000631116039398260033131F011343F3FF3F
:101520003377E300B318180133E7E800639FF7054A
:1015300050C98506E39AC6FD18C11307F00F6375FD
:10154000B70454412146854E3D4F930F80029302CC
:101550008004414EB398CE0033F715016392E80240
:101560001317260001173313EF001343F3FFB3766D
:10157000D3003317E800D98E639DF701232A1501A4
:101580000506E319C6FD54C18280E39457FA10C9D9
:101590004DB7E39757FE23281501DDB70CC98280AC
:1015A0004CC98280B7070140635A0504DC4F93564B
:1015B0000501131805013707300013F6F60013581C
:1015C0000801B376E50063500506639BE6029306C7
:1015D00006010D46B316D60093C6F6FFF58F99C9DE
:1015E000135755011377F73F12073317E800D98FC8
:1015F00063570504370701405CCF8280DC4345BF59
:101600001317B500635607008D46B396C600E9B7B9
:10161000135755011377F73F12073317E8001347A5
:10162000F7FFF98F6DBF6390E60237060140544221
:10163000370700F17D17F98F758F58C2D5F137073D
:1016400001405CC382801317B500635C07008D46C0
:10165000B396C60093C6F6FFFD8EB707000FD58F71
:10166000F1BF1357550112073317E8001347F7FF6F
:101670007D8FB707000FD98FD1B7EFE27FB77971B0
:1016800046212A8468082EC6752A925737470F00CC
:101690001307072433D7E702C204C18093F404FC84
:1016A000C2049306C003C180B24563F4E600130789
:1016B000C003131607014182D18C46A01620616534
:1016C0001305056AC206C182F99AC206C18216A034
:1016D00094416369D5048606B3D7D7029146139720
:1016E00007014183BA876373D70091470506420615
:1016F000C2074182C18312B05EAC1E20DA21B6253A
:1017000093E717001EA01E20558FC207C18393F7D1
:1017100057BFD98F1EA09A25DE25D98F1EA44561FB
:101720006FE05FAFEA2131667D16631DC5020D468D
:10173000B386C602B3D7D702C207C18393964701C7
:1017400099E293E71700A166D58F9306C01233077D
:10175000D7029306803E3347D702050742074183ED
:101760001AB059BF6546B386C602B3D7D702916691
:10177000C207C183D58FD9B71E2189C593E717004A
:101780001EA18280C207C183F99BC207C183CDBF5E
:101790001E2189C593E707101EA18280C207C1835D
:1017A00093F7F7EFC207C183C5BF1E2189C593E731
:1017B00007201EA18280C207C18393F7F7DFC2070B
:1017C000C183C5BF1E2189C593E707401EA1828042
:1017D000C207C18393F7F7BFC207C183C5BF0EA974
:1017E00082800A291375F50F828093F7E50F19C2DD
:1017F00093E71500C207C1831EA982805E290A2DC6
:1018000042055D8D6D8D220521810D8D13351500ED
:101810008280411102C402C693D7C5012AC63EC4C4
:10182000A247A205A18199CBB247D1073EC6B247D4
:10183000884341016D8D3335A0008280B247C1815C
:10184000E107EDB7371702405C439146B18B6385E2
:10185000D700A1466382D706B7177A00938707207F
:101860001CC1371602405C423707002013070711DE
:101870009183BD8BBA9794231C41B3D7D7005CC129
:101880005442A1829D8ABA969422B3D6D70014C539
:101890005442AD829D8A36971823B3D7E7005CC5C2
:1018A000584239839376370013874181369718233E
:1018B000B3D7E7021CC982805C435843C166C98321
:1018C000758FB7F6FF1F83A6C670BD8B8907139669
:1018D000160163480600C54601466392D702C94710
:1018E00039A88946638FD702BD46638ED702C146A9
:1018F000638ED702C54601466393D700C1471DEFEB
:101900003747024003270780418B05C737177A0006
:1019100013070720B307F7021CC121D61C4185839A
:1019200081B701466DBF0546B547D1BF0146BD47EA
:10193000F9B737173D0013070790E9BFB715024005
:10194000D8559316F700D85563DF060411833D8BF5
:101950009306170037177A00130707203357D7026B
:1019600018C1D455A182BD8A8DE295463307D702AE
:10197000058318C137170240585714413D8B05079E
:1019800033D7E60218C1184171B785456394B60094
:10199000E546E9BFBD456396B600D1463387E6020A
:1019A000C9BF8906E5BF3D8B9306170037177A003C
:1019B000130707203357D702F1B799C537170240ED
:1019C0005C4B5D8D48CB8280B7170240D84B1345E6
:1019D000F5FF798DC8CB828099C5371702401C4F1F
:1019E0005D8D08CF8280B7170240984F1345F5FFF1
:1019F000798D88CF828099C5371702405C4F5D8D05
:101A000048CF8280B7170240D84F1345F5FF798D34
:101A1000C8CF82809357550005476399E700B717F1
:101A200002409C4333D5A70005898280094763960D
:101A3000E700B71702409C53F5B7B7170240DC53D5
:101A4000D5B7371702405C5793F7F7F05D8D48D74D
:101A50008280B7160240DC5645777D17F98F5D8D81
:101A6000C8D6828009C9371702401C43B706001048
:101A7000D58F1CC38280B71602409C42370700F006
:101A80007D17F98F9CC2828099C5371702401C5779
:101A90005D8D08D78280B717024098571345F5FF30
:101AA000798D88D782801E2137370140930607C081
:101AB000C207C1836300D504B7060040630CD5029A
:101AC000938606406308D502B71600401386068049
:101AD0006302C502938606C0630ED5001307074054
:101AE000630AE50037570140930607C06304D50039
:101AF0006316E500BA2193F7F7F8D98F371700403E
:101B0000630CE500130707406308E50093F7F7CF80
:101B1000FA21C207C183D98F1EA1DE215EB59E21A5
:101B20001EB5B7370140138707C0630EE5009387E2
:101B30000740630AF500B7570140138707C06304E5
:101B4000E5006314F5009C251EB985475EA98280D7
:101B50001E3103D88500C207C18393F7F7EFC20790
:101B6000C1831EB11E3156215A2DC207139606019C
:101B70004207962141831377C7F8558FB621C18359
:101B800093F7F7DFB3E60601A206D58FB73601401B
:101B9000C207138806C04182C183630E0501938684
:101BA0000640630AD500B7560140138806C0630497
:101BB0000501631FD502FD769386F67FF58FB62566
:101BC00003D8C500A206D58FD621C207C183A206BD
:101BD00093F7F7BFD58FF576FD16F18EF225C20784
:101BE000C183336606011206D18E13960601418227
:101BF00052A15AADFA215ABD1EB182801E2189C55B
:101C000093E717001EA18280C207C183F99BC20718
:101C1000C183CDBF8357450491C52167D98F231256
:101C2000F5048280C607C583DDBF5E2501C6DD8D54
:101C30004EA5828093C5F5FFFD8DDDBFEFE24FDB42
:101C4000ED376FE02FDD93C5F5FFC205C1810EA909
:101C50008280EFE2EFD91629F577FD17F58FF6218F
:101C6000DA257971D58F1EA95625FD779387379F81
:101C7000F58FD6212A842EC6D58F9625D58FB625E9
:101C8000D58F5EA55E29C207C18393F7F7CFD98FA1
:101C90005EA96808453EB747014093870780B24573
:101CA000631EF402A2576547B387E7029841930683
:101CB00040060A07B3D7E70233D7D702B3F7D702F4
:101CC0001207920793872703B3D7D702BD8BD98F0B
:101CD000C207C1831EA445616FE0CFD39257E1B71D
:101CE00091C55E250967D98F5EA582805A25F9774F
:101CF000FD17F98FD5BF93F5F51F4EA182800A21FC
:101D00006D8D3335A000828083A701879843634B94
:101D100007029843370600304E05518F98C3984309
:101D2000370600804D81518F98C3C8C38CC7379741
:101D30000240114650CB23220700DC47054523A86B
:101D4000F186828001458280EFE28FCA854789450E
:101D50006318F50037150140EFF05F846FE08FCB1B
:101D600037150140EFF0DF83D5BFEFE26FC885473D
:101D700085456318F50037150140EFF03F826FE0AD
:101D80006FC937150140EFF0BF81D5BF37F7FF1F8F
:101D900081471307D77E99463306F7400C22330656
:101DA000F50085070CA2E399D7FE8280938701880E
:101DB00098433A9588C3828003A7018823AEE186C1
:101DC000B787024003A7471C25EF03A74719894798
:101DD00063F8E706EFE2CFC103D50189F945138423
:101DE0000189EFF02FD493572500858BA9C74D9912
:101DF000131605010A204182F945EFF02FD83787E5
:101E000002408327071093E717002320F71083274A
:101E10000710858BEDFFB787024003A7471C11CB46
:101E200023820188D843B706008093C6E6FF758FEA
:101E3000D8C36FE02FBE13654500420541814DBFF9
:101E4000B787024003A7471C19CB23820188D843D8
:101E5000B706008093C6E6FF758FD8C38280828064
:101E6000EFE26FB7938401898A2095451384018935
:101E7000EFF04FCB2A898A208545EFF0AFCA9377E0
:101E8000F9011389E188638A071483470900C1E3D4
:101E90000A208547F9452300F900A386F188EFF071
:101EA0006FC81376C5FF4206937715004182A9CF0C
:101EB000136626000A20F945EFF04FCC0A20814531
:101EC000EFF04FC61376E5FF42060A204182136603
:101ED00006208145EFF08FCA0A208145EFF08FC4BC
:101EE000136635200A20420641828145EFF00FC972
:101EF00083A7818813074006B3F7E7029387270378
:101F0000238CF1806FE06FB01366160065B705474C
:101F10006397E70089472300F900A3860188938728
:101F2000E189038707006346070693849181942023
:101F30002147639AE6040A20F945EFF0AFBE137615
:101F4000350F0A20F94590A0EFF04FC3238004001D
:101F50000A208145EFF00FBD1376E5FF42060A2007
:101F60004182136606208145EFF04FC10A2081456A
:101F7000EFF04FBB136635200A20420641828145AF
:101F8000EFF0CFBF21A0130700F898A3238E01889C
:101F900095BF9387518A98239306170094A395467B
:101FA000E316D7FE1375050275F1938491812380A2
:101FB00007009C2011490A20F945E38027F9EFF03A
:101FC0006FB61376350F0A2013664600F94590A0C8
:101FD000EFF0CFBA23802401A5BF0347090085474E
:101FE0006312F7081387D1881C23A1468A2085072E
:101FF00093F7F70F1CA3639BD70023000700230070
:1020000009002146F945EFF06FB7EDBDF945EFF056
:102010006FB11376C5FF4206937715004182A1C3C5
:10202000136626000A20F945EFF04FB50A208145D6
:10203000EFF04FAF1376E5FF42060A2041821366A8
:1020400006208145EFF08FB30A208145EFF08FAD78
:10205000136635204206418281450A206DB713661A
:102060001600C9B71384C189834A0400138AE18921
:1020700083460A0093871A001307000893F7F70FA7
:102080006394E6063D476384EA001CA0A5BD8A2050
:102090002300040023000900138491812149214673
:1020A000F945A382018A23000A0023002401EFF0EE
:1020B000EFAC230024018A208145EFF0AFA6137610
:1020C000E5FF42068A204182136606208145EFF033
:1020D000EFAA8A208145EFF0EFA41366352042066F
:1020E000418281458A2005B79389918103C7090000
:1020F0001DE71147E39BEAF88A20F9452300040015
:10210000EFF04FA21376350F8A2013664600F9458B
:102110002380C900EFF08FA62380590169BF914643
:102120006318D7023D47E392EAF68A2023000400B1
:1021300021442146F945A382018A23000900230096
:102140000A0023808900EFF06FA323808900A5B7E0
:102150001CA093074006E397FADA8A20216681459E
:10216000EFF0CFA12382018AA382018A2382018812
:10217000A147230004002300090023000A00238054
:10218000F9002146F945B9BFEFE28F869387D189DF
:1021900098231377F70F2DC303A7018883A6018A1D
:1021A000158F9306301F63F7E604374702402380FC
:1021B000070083270780138401890A2093E74700DB
:1021C0002320F78021668145EFF04F9B2382018A0F
:1021D000A382018A238E0188238701880A20238213
:1021E0000188238F018821472146F945A38CE1808E
:1021F000EFF0CF986FE00F821389418A834709007F
:102200001384C188C1EB83C6E18805471389E1883F
:1022100093848181636BD70003D501899545EFF0E5
:102220006F907D8919C123800400938701889043B2
:102230009386018A94428C20158E93860188138799
:10224000018A6361B6040346090085476311F604F9
:10225000138681881C42B745030093851540B387D8
:10226000B702B7A52600938595ECAE971CC213065E
:102270004006B3F7C702938727039CA09C421CC368
:10228000EFF01FBE1C20BDD723000400A5B79307A5
:102290002003E5B71C2093844188A5C383A7018848
:1022A00003A7018A998F1307900F6378F70423001F
:1022B0000400138401890A208545EFF0AF869377E7
:1022C000450085EFEF20C0060A2021668145EFF02A
:1022D000EF8AA382018A238E01880A20238701883E
:1022E000238F018821472146F945230009002380D7
:1022F0000400A38CE180EFF06F889C20E38C07EE54
:1023000003A7C18783A70188998F13073006E3735A
:10231000F7EEEFF07FAAF9BDEFD29FED41118545B1
:10232000414502C202C402C6EFF00FEB8D477C822A
:10233000C1473EC64C008D47371501403EC4EFF003
:10234000EF99894537150140EFF04FA585453715C1
:102350000140EFF0AFA441016FD0DFEBEFD25FE9B6
:102360000145EFF02FF04145EFF0AFED3565EFF0AF
:102370004FEE0545EFF00FEF1305D003EFF08FE9B7
:1023800065DD6FD03FE9EFD2BFE6138401890A20F3
:10239000954513890189EFE0FFF8AA840A20854555
:1023A000EFE05FF8937745002A8495C38DE03747C7
:1023B000024083270780ED9B2320F7800547A38EEB
:1023C000E18803A7018823A0E18A6FD0BFE42285BA
:1023D000EF1010761374440293074002631AF40856
:1023E00003550900C145EFE0FFF31189B7860240AC
:1023F00019E5FD888547B78602406385F4069C424F
:10240000056713070780D98F9CC2B787024098439E
:10241000D176FD16758F98C391462382D18AD84311
:10242000B70600808506558FD8C303A7071013672A
:10243000170023A0E7103787024083270710858BFA
:10244000EDFF05472382E18803A7018823AEE186DB
:10245000EFF02F83B78702409C43AD83858B238C9D
:10246000F186A5B79C427D771307F77FF98F69BF87
:102470003747024083270780ED9B2320F7800547DD
:10248000A38EE18803A7018823A0E18AE1B7EFD2F8
:102490009FD4317137960240B7067000370760004D
:1024A0005C4AF58FE39EE7FE83C7418A9384418AA5
:1024B00095C703D50189F94513840189EFE09FE6AB
:1024C0001376C5FF42069377150041826386072283
:1024D000136626000A20F945EFE05FEA0964EFE0A1
:1024E000FFF713040471379902407D144204294513
:1024F0004180EF00500809C483270900858BF5F758
:102500004800EFE0BFD485473EC2930700203ED687
:10251000B70700023EC58566930700083ECD370722
:1025200020001389068093070004378402403AC9CB
:102530004AD202CC02D002D802DE82C482C882CA49
:1025400082CC02C33ECF02D31C48938616A03785A7
:1025500001808D9B1CC8B245A24710401305150C85
:10256000CD8FB78520FF9385F5106D8ED18F4246B4
:10257000B7950240D18F5246D18F7246D18F2256E5
:10258000D18F5256D18F6256D18FD58F1CC01C402F
:10259000B7061000D58F1CC086479646D58FB64625
:1025A000D58F5CC0F6471CC486575CC43656A65708
:1025B000144CD18F4656D18F5656D18F6656D18F37
:1025C0004166130616F4F18ED58F9656C206D58F46
:1025D0001CCC8A46F657D58F5CCC5A46BA47944DE8
:1025E000D18F3746DEF8130636F2F18ED58F8A5634
:1025F000D58FB70620029386060CD58F9CCD938687
:102600000186DC32CC22A207CD8F3CC083C6118666
:1026100083C701868545A206DD8E83C72186C20752
:10262000DD8E83C73186E207D58F7CC0B7070200F5
:102630002328E410938707022326F410EFE09FE796
:1026400037350020B7550020930945B909469385D1
:10265000455B130545B9EFE09FD737350020B73507
:102660000020130A45B21D46938545BB130545B2AC
:10267000EFE01FDA23AA418923AC31891C407D7722
:102680001307F77FF98F1CC083C7818791C71C4050
:1026900033E9270123202401B78602409C42517769
:1026A0007D17F98F9CC2EFE0DFDD9C201384018948
:1026B000B9E70A2021668145EFE05FCCA382018A59
:1026C000238E0188238701880A2023820188238F93
:1026D000018821472146F94523800400A38CE1802D
:1026E000EFE0DFC905472386E18803A7018823A01F
:1026F000E18A29616FD07FB113661600E1BB0A2021
:10270000F945EFE03FC21376C5FF42069377150007
:10271000418291CB136626000A20F945EFE01FC6DF
:102720009C20E9F379B713661600FDB783A74187AC
:102730001307000293F7070F639FE700B797024064
:102740009C533707FE1FF98F99C7EFD27FAAEFF08E
:102750001FD46FD03FAC8280EFD29FA9EF10103C06
:10276000EF105020EFF05FA2D1376FD0BFAAEFD2A9
:102770003FA8378702401C4B2E8481458D9B1CCB84
:1027800050411C411443D18F378620FF1306F610A9
:10279000F18ED58F1445D58F5445D58F1449D58FDB
:1027A0005449D58F144DD58F544DD58F1451D58F95
:1027B0005451D58F1455D58F5455D58F1459D58F65
:1027C0005459D58F1CC31C43B7061000D58F1CC3AA
:1027D000545D1C5DD58F3441D58F7441D58F344500
:1027E000D58F7445D58F3449D58F7449D58F5CC347
:1027F0003C4D1CC77C4D5CC730557C51144FD18F6C
:102800004166130616F4F18ED58F74553796024043
:10281000D58F3459D58F7459D58F3451C206D58F81
:102820001CCF745D3C5DD58F5CCF83264508832724
:102830000508184ED58FB746DEF8938636F2758FA9
:10284000D98F03278508D98F0327C508D98F032778
:102850000509D98F03274509D98F03278509D98F02
:102860000327C509D98F0327050A2285D98F1CCED6
:102870002166EFE0BFB02146F9452285EFE01FB0A9
:1028800005456FD03F99EFD21F9531718545AA84D8
:102890007165EFF08F9285472398F188EFF01FACB8
:1028A000374702408327078009641304047193E7C4
:1028B00047002320F780EFE0FF9713890189EFE0BD
:1028C000FFB9B79902407D14420429454180652132
:1028D00009C483A70900858BFDF74800EFE01F9727
:1028E0008567938707803ED285473EC293070020C5
:1028F0003ED683550900B70700023EC5930700087E
:10290000370420003ECD48009307000422C93ECF83
:1029100002CC02D002D802DE82C882C482CA82CC33
:1029200002C302D3EFF0BFE4DC30D820B786024008
:10293000A207D98FBCC298309C203785018022071E
:102940005D8FBC2085451305150CC2075D8FBC301B
:10295000E207D98FFCC2B707020023A8861093872D
:10296000070223A6F610EFE0FFB429616FD0FF89BC
:10297000EFD21F88B7970240C04B13170401635A68
:102980000702137704081DC303A74187C1461377C5
:10299000070F6319D700F847B7060080584714C3DC
:1029A00023A4070013050008EFE03FAC2165EFE02A
:1029B000DFAB9317F40063DA07029377040489C747
:1029C00013050004EFE07FAA9377140081C7054543
:1029D000EFE0BFA963580400EFF0FF9A37050080CD
:1029E000EFE0BFA84165EFE05FA86FD0BF82EFD2F4
:1029F0003F802A8413054006552EEFE06FE123AA9D
:102A0000A186EFF07F913C3058202285B98F583055
:102A1000B98F3747030013071740B387E70237A77B
:102A20002600130797ECBA9723A4F188EFF0BFE5CF
:102A300037350020B7550020130445B90946938562
:102A4000455B130545B9EFE09F9837350020B73552
:102A50000020930445B21D46938545BB130545B23E
:102A6000EFE01F9B23AA918823AC81880967B7E711
:102A700000E023A4E710A38607446FD0AFF9EFD29C
:102A80002FF73971930700603ECA9307405B3ECC35
:102A90008567938747273ECE930720033ED0930751
:102AA00030103ED2B727554089073ED4B7270000E3
:102AB0009387A7D63ED6B7270000938787D43ED802
:102AC000B7270000938787D03EDAB7573412938731
:102AD00087672A8948082EC632C4B68402DC3EDEE7
:102AE000EF10D0752A8419E92246B245A6864A8598
:102AF000EF10B0682A842685EFF07FEF22852161F0
:102B00006FD04FF1EFD2CFEE1D711306C002814599
:102B1000481802CC02CE02D002C602C8231A010015
:102B200002D202D402D602D8EFD08FEF85450945F4
:102B3000EFE0BFE83705100085452505EFE0DFE948
:102B400037051580854513050502EFE0BFA59307FE
:102B50000002FC8437150140E1473ED02C088D4728
:102B6000130505C03ECEEFE07F97930790056C00FC
:102B700037550140FC8002C6EFE0FFF2C167938742
:102B800007064C10375501403ED237040240231649
:102B9000010223150102EFE0BFFB1305044CEFE037
:102BA000CFC7B75701409387C7033EDAC1473EDE20
:102BB00093070008BEC493070010BEC693070040E9
:102BC000BEC84C188D671305044CBECC82C282CAA5
:102BD00082CEEFE04FDB05469305001037550140EC
:102BE000EFF0CF85854537550140EFF0AF82256185
:102BF0006FD04FE2EFD2CFDF1305C012AD2A6FD0F6
:102C00006FE10111FD7722CC4AC8001006CE26CA1A
:102C10009387073F3E912326A4FEE93F0325C4FE88
:102C20000A8981472148E148130300601041814629
:102C3000938586003387D700B315B6004207939477
:102C400085004183130ED00363C30400754E06074D
:102C50004A972310C7018506E39C06FD8146938EA3
:102C600087003387DE00B315D600420793948500B2
:102C70004183130ED00363C30400754E06074A97C1
:102C80002310C7018506E39E06FDC1463387D700A2
:102C9000B315D6004207939485004183130ED003E9
:102CA00063C30400754E06074A972310C7018506C3
:102CB000E39E16FDE107C207C1831105E39867F69D
:102CC0008567CA97B7040240239007C0239107C0C5
:102CD000239207C0239307C0239407C0239507C0FE
:102CE000239607C0239707C01385044C8145EFE066
:102CF0000FCD9384044C23A6240193058060268580
:102D0000EFE02FCD85452685EFE06FCB8545375524
:102D10000140EFE0BFEE37250020EFE0CFCB65DDCF
:102D2000814537550140EFE07FED37050240814591
:102D30001305054CEFE0AFC837250020EFE0CFCCFE
:102D4000130104FEF2406244D2444249056182808C
:102D500083A7018137177A0013070720B3D7E7024B
:102D600093F7F70F2384F18A1307803EB387E702B6
:102D70002393F18A8280B7F700E0D8438146799B9C
:102D8000D8C303C7818A3306A70290CBD4CB98431C
:102D90001367070198C398431367170298C3D84372
:102DA000058B75DF9843799B98C38280B7F700E065
:102DB000D8438146799BD8C303D7618A3306A702DB
:102DC00090CBD4CB98431367070198C398431367FC
:102DD000170298C3D843058B75DF9843799B98C336
:102DE0008280EFD2EFC02A8411650111854511055B
:102DF000EFE09FBE930700207C82371501408D478E
:102E00003EC44C00E147130505803EC6EFE00FEDE0
:102E100022C837440140B70708000C081305048096
:102E20003ECC02CA231E0100EFE0BFE28545130538
:102E30000480EFE0FFEA05616FD0CFBDEFD2AFB9FC
:102E4000B7440140AE8932890144938404806345CC
:102E500024014A856FD06FBB930500042685EFE0FF
:102E60001FEA7DD9B387890083850700268505047D
:102E7000C205C181EFE03FE8D9BF732510348280DD
:102E80007325203482807325303482801D715EDE8C
:102E9000938BC181A2CCA6CACAC8CEC6D2C4D6C2A0
:102EA000DAC086CE2A89AE893284B684112603AB75
:102EB0000B00FD57AA8A2E8A6307FB062286A68688
:102EC0002285A685EFA0406239ED4A86CE864A85E6
:102ED000CE85EFA0606101468146631B05104A85DF
:102EE000CE85EF90500429ED014681462285A685C6
:102EF000EF9070034DE185473EC497B7000093877C
:102F000067F93EC602D44AC84ECA22CC26CE02D0A9
:102F100002D2630D0B1097B70000938727F583AAA1
:102F2000070003AA4700F64066445685D285D6447A
:102F30004649B649264A964A064BF25B256182808D
:102F40005685D285EF00F071630F050E5685D28548
:102F500001468146EF90207D79F54A85CE85EF00C8
:102F6000507071D12285A685EF00B06F4DDD91477D
:102F700003A70B003EC497B700009387A7F13EC696
:102F800002D44AC84ECA22CC26CE02D002D28947E9
:102F9000631BF71235AA2285A685EF00906C41D5F8
:102FA000014681462285A685EF907009E35D05F60E
:102FB000054783A70B003AC417B70000130787ED36
:102FC0003AC602D44AC84ECA22CC26CE639807100D
:102FD00002D002D22800EF00B069630C0510A2579E
:102FE00089C7EFA0500FA2571CC1825A125A25BFA1
:102FF0002285A685EF9020731DF597B70000938773
:10300000E7E603AA470083AA0700854636C497B6B9
:103010000000938626E836C602D44AC84ECA22CC9F
:1030200026CE56D052D28947E30FFBEE2800EF00A0
:10303000306471C5A257D5DBEFA0F009A257825AC0
:10304000125A1CC1CDB54A85CE85EF009061E30FC1
:1030500005EE2285A685EF00D060E30905EED28655
:10306000D2855686568503AA0B00EFA0E04763176A
:10307000051097B70000938767BA9043D4438D47F4
:103080002285A6853EC497B700009387A7E022CC8F
:1030900026CE3EC602D44AC84ECAEF90B0052A8456
:1030A000AE8463140A0697B70000938727DD984320
:1030B000DC43014681464A85CE853AD03ED2EF9028
:1030C0000078634805062800EF00905AE31905F0E0
:1030D000EFA07000930720021CC111B797B6000043
:1030E000938646D99042D442094732D036D2E393F0
:1030F000E7EEEFA0407E930710021CC1CDB5EFA014
:10310000807D930710021CC135B797B700009387E5
:10311000E7D79843DC43014681464A85CE853AD0BD
:103120003ED2EF90C071634A05028947E302FAFA82
:1031300059BF2285A685EF00D0542286A686EF903F
:10314000805E15C997B700009387C7D39843DC43C7
:1031500003AA0B003AD03ED2C9BF2285A685EF0054
:1031600050522286A686EF90005C11C597B70000EA
:10317000938747D0E1BF03AA0B0045BF85473EC4F4
:1031800097B70000938707D13EC602D44AC84ECAFB
:1031900022CC26CEE30E0AE2014681463285B68570
:1031A000EF80307D2AD02ED28947E304FAF41DB592
:1031B0003708008019711348F8FFCAD833F906019F
:1031C00086DEA2DCA6DACED6D2D4D6D2DAD0DECE55
:1031D000E2CCE6CAEAC8EEC6B367C900DDC73374FD
:1031E000B800B707F07FAE8A2A8A63DB8702370808
:1031F00010C022983368A800B705F03F0145631D51
:103200000808F6506654D6544659B659265A965A66
:10321000065BF64B664CD64C464DB64D0961828036
:103220006309F406E3C527FDB707F07F630FF91ABA
:10323000AE84AA89B28CB68D014D63C30A0863902F
:103240000C0CB706F07F6301D914B706F03F630F8B
:10325000D914B7060040E384DD18B706E03F639059
:10326000DD0A63CE0A086654F6504659265A965A25
:10327000065BF64B664CD64C464DB64D4E85A68544
:10328000B659D65409616F0010200145B705F03FCB
:103290008DBF19E1E35A24F96654F650D6544659C5
:1032A000B659265A965A065BF64B664CD64C464D96
:1032B000B64D17B500001305E5A209616F00903BFC
:1032C000B70640436356D912B706F03F6347D902A9
:1032D00093564941938616C05146E35AD6101306B9
:1032E0004003B306D64033D6DC00B316D60063964F
:1032F0009601058A0943330DC340E3880CF44E85DB
:10330000A685EF00B03563050A0413DEF4017D1EC7
:10331000B366CD01E5C2B706E04163D8260FB70614
:10332000F04363D9267B3707F03F6350E40A63DC40
:103330000D0697B70000938767B89043D443328552
:10334000B685EF90205B75BDEF00503163140A0A1B
:1033500001C89396240089823706F03FE397C6FAA6
:1033600063C80D06E3DF0AE8B70710C0A297B3E70A
:10337000A701E39C070A2A86AE86EF9030232A86AF
:10338000AE86EF80105FB5BD370510C0229533655E
:103390003501E30C05EE3707F03F634FE470EE852F
:1033A0000145E3D00DE601458145A1BD4E85A685C9
:1033B000E3D90DE497B70000938747AB8843CC432C
:1033C0004E86A686EF80F05A2DBDE344B0F7E1BFEC
:1033D00017B70000130787A9AA8CAE8708434C4390
:1033E0006686BE86EF80F058B5BFE30306E401B5FC
:1033F000094DB1B54E86A6864E85A685EF90101B69
:103400002A86AE86EF80F056EDBBB706F07FF58CCE
:10341000014691EC97B600009386C6AC9042D44228
:1034200072C4EF90204D224E2E841306B0FCB705D7
:103430001000935E44411388F5FFB7A60300938EF6
:103440001EC033780401370CF03F9386E688B29EA5
:10345000336C880163DB0667B7B60B00938696670B
:1034600063DD067D97BA0000938A4AA0850E330C6F
:10347000BC4083A70A0003A84A0002C802CA02DCB3
:1034800002DE81493EC442C62244B244E28522861D
:10349000A68676DA72D82A89EF9050112A8BAE8BE5
:1034A0002286A6864A85E28522C426C6EF80605918
:1034B0002A86AE8603A50A0083A54A008144EF80D0
:1034C000504B2A86AE862ACC2ECE5A85DE85EF90CA
:1034D0006042135F1C40B7060020336FDF00B70661
:1034E0000800369FFA992A8ACE86014626852E84C0
:1034F000EF9040402A86AE865A85DE85EF90100B0D
:103500002246B2462A8BAE8B0145CE85EF90100A3B
:103510002A86AE864A85E285EF9050092686A286E5
:10352000EF90403D2A86AE865A85DE85EF901008E2
:103530006248F24897BB0000938B4B9E4286C6863A
:10354000EF90403B5286A2862AC42EC65285A285A1
:10355000EF90403A97B60000938646999042D44245
:103560002A89AE89EF90003997B600009386869835
:103570009042D442014B014CEF80A04C4A86CE864B
:10358000EF90403797B60000938646979042D4421A
:10359000EF80204B4A86CE86EF90C03597B600006C
:1035A000938646969042D442EF80A0494A86CE86C2
:1035B000EF90403497B60000938646959042D442EF
:1035C000EF8020484A86CE86EF90C03297B6000042
:1035D000938646949042D442EF80A0464A86CE8697
:1035E0002ACC2ECE4A85CE85EF90C0306247F24776
:1035F0002A86AE863A85BE85EF90C02F2A89AE898D
:103600002686A2865285A285EF80A0432246B24636
:10361000EF90402E4A86CE86EF80A0422A89AE895E
:103620002686A2862685A285EF90C02C03A60B00D5
:1036300083A64B002AD42ED6EF80A0404A86CE86A1
:103640004ACC4ECEEF80E03F2E895A86AE86268544
:10365000A285EF90202A03A60B0083A64B002AD058
:103660002ED25A85CA85EF906074225FB25F7A8647
:10367000FE86EF90A0732A86AE866245F245EF90F3
:10368000E0725286A286EF90E0262A84AE8422451C
:10369000B2455A86CA86EF90E0252A86AE862285F4
:1036A000A685EF80003A025B925B2A84AE842A866C
:1036B000AE865A85DE85EF80C03897B600009386C7
:1036C00066869042D44262852E8AEF90A0222A8993
:1036D000AE895A86DE866285D285EF90206D2A8675
:1036E000AE862285A685EF90606C97B60000938623
:1036F000E6839042D442EF90E01F97B60000938695
:1037000066839042D4422A84AE846285D285EF904B
:10371000601E2A86AE862285A685EF80803262569C
:10372000F256EF800032D25E2A8BAE8B7685EF9018
:10373000705F2A84AE845A86DE864A85CE85EF8005
:1037400040304246D246EF80C02F2286A686EF80C8
:10375000402F01463285A6862286AE842A84EF90C9
:10376000E0644246D246EF9060644A86CE86EF908F
:10377000E0632A86AE865A85DE85EF902063425E3E
:103780002A89AE891303FDFF336EC301631F0E3018
:1037900097A60000938606729C4203A846003EC48A
:1037A00042C6014C6286EE866685EE85EF9000602B
:1037B0002286A686EF9000142A8BAE8B6686EE8654
:1037C0004A85CE85EF9000132A86AE865A85DE851F
:1037D000EF8020272A89AE896286EE862285A6851B
:1037E000EF9040112A86AE862A84AE844A85CE8523
:1037F000EF802025B70790402A8A2E8BAE8B63CCB2
:10380000F524B387F540C98F639C074097A7000054
:103810009387C7729043D4434A85CE85EF80602258
:103820002A8DAE8D2286A6865285DA85EF900058C5
:103830002A86AE866A85EE85EF8090756342A03E4B
:1038400093D74B4193F7F77F37051000938727C035
:10385000B357F540DE9713D747411377F77F130728
:1038600017C0130AF5FFB355EA4093C5F5FFFD8D68
:1038700033FA4701D147336AAA003387E74001464C
:10388000AE86335AEA4063D40B00330A40412285A6
:10389000A685EF90A0512A86AE862A84AE844A85FA
:1038A000CE85EF80001A2E8B931D4A0117A70000CA
:1038B0001307C76910435443014C6285DA85EF90C2
:1038C00060035A8DAE8B2A8B2286A6866285EA8596
:1038D000EF90C04D2A86AE864A85CE85EF90004D8A
:1038E00017A700001307076710435443EF908000A9
:1038F00017A7000013078766104354432A84AE8439
:103900006285EA85EF80107F2A86AE862285A685AD
:10391000EF8020132A89AE892A86AE865A85DE85F5
:10392000EF8020125A86DE862A84AE84EF9000480B
:103930002A86AE864A85CE85EF9040472A8BAE8B8D
:103940002286A6862285A685EF80D07A97A70000DA
:10395000938747619043D4432A89AE89EF80907959
:1039600097A70000938787609043D443EF9000446B
:103970004A86CE86EF80107897A700009387875FEE
:103980009043D443EF80E00B4A86CE86EF8090765A
:1039900097A700009387875E9043D443EF90004140
:1039A0004A86CE86EF80107597A700009387875DC3
:1039B0009043D443EF80E0084A86CE86EF80907330
:1039C0002A86AE862285A685EF90403E2A86AE8660
:1039D0002A8CAE8C2285A685EF80D07197A6000038
:1039E000938646239042D4422A89AE896285E68531
:1039F000EF90C03B2A86AE864A85CE85EF80607701
:103A00002A89AE895A86DE862285A685EF80906E49
:103A10005A86DE86EF80E0022A86AE864A85CE850B
:103A2000EF90C0382286A686EF904038AE862A8670
:103A300083A54A0003A50A00EF904037B387BD0075
:103A400093D64741635ED022BE852246B246EF80C0
:103A5000706A6FF00FFB93971500B7D6904085837F
:103A60009386F6BF63D6F61AB7376F3F9387074042
:103A7000AE97C98F99EB2286A686EF9020334A86AF
:103A8000CE86EF80F050E34D05DA17A40000130452
:103A9000644B104054402245B245EF80B065104061
:103AA0005440EF8030656FF0CFF583A70A0003A87C
:103AB0004A003EC442C6F5B1E3D70D8EB70500807B
:103AC0000145B3C5B5016FF0CFF397AA0000938A03
:103AD000EA3945B2B706F03F1386E6FFE35986841C
:103AE000E3C5868E97AA0000938A4A3803A60A0087
:103AF00083A64A0072C8EF90602B97A600009386B9
:103B0000663C9042D4422A84AE84EF80B05E97A691
:103B100000009386A63B9042D4422A89AE89228532
:103B2000A685EF80305D97A600009386260D904213
:103B3000D4422AC42EC62285A685EF80B05BAE860D
:103B400097A50000938505392A868841CC41EF90DE
:103B5000E0252286A686EF80F059AE8697A5000064
:103B60009385C50B2A868841CC41EF9020242A8B6F
:103B7000AE8B2286A6862285A685EF80B0572A8640
:103B8000AE865A85DE85EF80F05697A600009386B4
:103B9000E6349042D442EF80F0552247B2472A865D
:103BA000AE863A85BE85EF9060202A86AE862A8B47
:103BB000AE8B4A85CE85EF70D0680146CE863285C1
:103BC00032844A86AE84EF90601E2A86AE865A857D
:103BD000DE85EF90A01D2A89AE89424E65B64E86DD
:103BE0004E85A686A685EF80F0506FF08FE1639D2D
:103BF0000CF4B306D6403356D940B316D600668DC2
:103C0000639526E5058A0943330DC3406FF0EFE362
:103C10003707E03F814D014AE35AF7C8D1872DB1FC
:103C200017A4000013048429ADB58547631BFDDC90
:103C3000B7070080BD8D6FF0CFDC97A6000093869C
:103C4000E6259C4203A8460097A600009386862599
:103C50003EC842CA9C4203A8460097A6000093862D
:103C6000E6243EDC42DE9C4203A84600B70904007D
:103C70003EC442C697AA0000938A4A1F6FF0DF80B5
:103C800052867126D9B341113707F07F22C426C26C
:103C900006C63378B7002E84AA84630DE816AE8773
:103CA000AA86635FB00E13DE454163010E1A370723
:103CB00010001306F7FFF18FD98F130E1EC0139754
:103CC000170013761E0093D7F601BA9713971600C4
:103CD00011C67D838607BA9713972600135E1E4090
:103CE000D945814E8146370620003385C6001358DA
:103CF000F701FD1563C6A700898FB306C500B29E04
:103D00008607C29706070582EDF1130500020143FD
:103D100081483706008019A86385D70E9355F701AF
:103D200086077D15AE97060705820DC9B3051601F6
:103D3000E3D4F6FEB388C500368863CE050A958FB6
:103D4000B336B700958F0D8F9355F70186077D1514
:103D50003293C286AE970607058269F9D98F9354CC
:103D6000130089CB93041300FD5785806314F3007F
:103D7000850E814413D71E403704E03F93FE1E009A
:103D80003A9463850E00B7070080DD8C13174E014F
:103D90002297B24022442685BA859244410182800E
:103DA0001397150005833368A7002E87E30308FEE9
:103DB000D9E193D5B600AD172E87D606FDD913D617
:103DC000450141EA014611A02A8606079315B7006E
:103DD00013051600E3DA05FE930800023688B3885F
:103DE000A840BA85B396A60033571801338EC74052
:103DF000B367B7006DBD13C8F8FF1358F8013698C4
:103E00003DBFE36DB7F0B388C500E3C605FE3E884D
:103E1000814715BF2A86AE86EF80D02D2686A286E2
:103E2000EF703042B2402244AA842E872685BA859C
:103E30009244410182802A86AE86EF8030772A86BE
:103E4000AE86EF800033AA842E87A1B72E878147E4
:103E500095BF3688930800027D5679B7860585811F
:103E6000828086058581370510802E957D81828030
:103E70000145828097A70000938747118843CC4370
:103E8000828013D7454179711377F77F22D406D604
:103E900026D24AD04ECE130617C0CD48AE87AA868A
:103EA0002E8E13D4F50163C8C810634B0608B705FE
:103EB0001000FD15B3D5C54033F5F500558DB68816
:103EC0003E8335C5858133F8F5003368D800630536
:103ED00008029306E7BE370E040093B6160093C59A
:103EE000F5FF37080080B306D040ED8F3356CE4043
:103EF0003378D80033EEC70097A70000938787096F
:103F0000131334003E9303240300832443004286AA
:103F1000F2862285A685EF70D0322AC42EC62245AD
:103F2000B2452286A686EF807068AA882E83B2509A
:103F3000225492540259F24946859A8545618280FD
:103F4000B704008093C4F4FF33F7B400498FAA8804
:103F50002E8371DF9397C500B18333E7A700B307C2
:103F6000E040D98F97A600009386C602131734004D
:103F7000BA96B18303A9060083A9460001773703E7
:103F800008006D8F33F367003363E3009A862A8657
:103F9000CE854A85EF70F02A2AC42EC62245B24546
:103FA0004A86CE86EF809060ED8C1313F40133E3E4
:103FB0006400AA88ADBF9308300363DFC80013070D
:103FC0000040AA882E83E314E6F62A86F286EF7074
:103FD0005027AA882E83A1BF1307D7BE7D5633561C
:103FE000E600B375A600AA883E83B1D10582B377F7
:103FF000A6002A88E38207F0370800401346F6FF40
:10400000B376A6003357E84033E8E600F5B5411132
:1040100093D7454122C406C626C293F7F77F2E8761
:10402000AA863284C1E7939715008583C98FA5CBF3
:1040300097A70000938707F7D4439043EF80900B36
:10404000D177938707CBAA862E876341F40E93D747
:10405000454193F7F77F2E869387A7FCA297930598
:10406000E07F63C3F50A6346F00A9305B0FC63D1B1
:10407000B706B1679387073563C8870897A700001D
:10408000938747EC8043C44336862285BA86A6854B
:104090007D28A6862286EF80F005AA862E87B2406C
:1040A000224492443685BA85410182801308F07F0C
:1040B0002E86E39507FBAE862A86EF709018B240F5
:1040C0002244AA862E8792443685BA854101828091
:1040D000370710807D1793876703798ED20717A75C
:1040E00000001307A7ECB685D18F544310432E85EB
:1040F000BE85EF803000B2402244AA862E879244CB
:104100003685BA854101828097A70000938707DB37
:1041100095BF37071080B24022447D17718FD207B8
:104120005D8F92443685BA854101828097A7000051
:10413000938747E1D4439043EF80C07BB240224451
:10414000AA862E8792443685BA8541018280370738
:1041500000809347F7FFF98EED8F2A87D58F3A8538
:10416000BE858280EFC2CF8883A7018841113EC6F9
:10417000EF1060201189630005149387418C9843E8
:10418000B246998E379700200327C733058363769D
:10419000D700324798C3EF30F041EF30506D83A71E
:1041A000418D91C7EF30304319E123AA018C9384EC
:1041B000018C9840B247998F1307703E6376F700E1
:1041C000EF208010B2479CC09387C18A9843B246C3
:1041D000998E0567130777386376D700324798C3FF
:1041E000EF10604CB797002093870730D84711CF66
:1041F0001387C18B1043B246918E1306703E6376CF
:10420000D600B246DC4314C38297B794002083A73C
:10421000842AA9CB1387818B1C43B2461306A00FB7
:104220009D8EB797002083A78737ED83B387C7029A
:1042300063E9F600B2471CC39387842A9C4B91C361
:1042400082979387418B9843B246998E3D671307B7
:10425000F7A56379D70032479384842A98C3DC4852
:1042600091C3829732459384018B7D2C9C403247C9
:104270001D8FBD679387F7A563F5E700952CB247BF
:104280009CC003C7118DBE841377F70F0DC703C7FA
:10429000118D1377070C1DE3B797002083A707380C
:1042A00099C30545829703A7018823A6E18C93074C
:1042B0000004A388F18C41016FB0DFF503C7118DB5
:1042C0001377070415CB83A6C18C03A70188138934
:1042D000C18C158F93064006E3FFE6FCB7970020DC
:1042E00083A7073899C30145829783A701882320B4
:1042F000F900930700F875BF03C7118D6207618746
:10430000E35B07FA83A6C18C03A70188158F930688
:104310004006E3F2E6FAA388018C71BFEFB25FEDCD
:104320003795002013050539EF10F01A6FB09FEE96
:10433000EFB21FECB797002093870732D857379416
:10434000002088D313674700D8D7118993074436D4
:104350009C4F1304443601CD99C3014582975C4CB0
:1043600099C3014582970545AD226FB0BFEA99C355
:10437000054582975C4CF5DB05458297FDB783A721
:104380004189232005009DCB944363DB0600D4477D
:104390009042634506029C4363D4070023AAD18858
:1043A00083A7418991650146FD153548B70800800E
:1043B000944363D7060019C223AAF188014582807D
:1043C00094431393060163420304944393F6061047
:1043D0008DCE944393F606208DCA9443C182ED8E10
:1043E000F11614C16371D802944393F6060281EA70
:1043F00019C223AAF1889C475CC105458280944379
:1044000093F61608F5D62320050023A017010546CC
:10441000DC4779BF03A74189B706008014C358471A
:1044200023AAE1888280EFB2BFDC83C7118D93F7A6
:10443000F70F81E78547A388F18C03A7018893874D
:10444000818C09CB98C3B797002083A74738829700
:104450006FB05FDC0547FDB7B7F7FF1F03D5677087
:104460001375050F8280EFB2BFD8B797002083A7DE
:1044700047380149B9C783A40187A1C49C4003A957
:1044800084001384818C63DC0702EFF0FFFC14408E
:1044900081471306000813083006A16813030003C0
:1044A0006304C5006312650203A70188158F636466
:1044B000E80063FBF8009C40860785839CC02320AE
:1044C00004004A856FB01FD59840E35A07FE850760
:1044D000C1BF03A70188B79700209387C72988A386
:1044E000239107002392070098C7A38007008280CA
:1044F000EFB21FD0B7940020138404395C404111FF
:104500006C00138504393EC623220400EF10A03A44
:10451000B2476C00138504395CC05C443EC6EF10A2
:10452000803941016FB01FCFB79700209387C7290B
:10453000982319E388C7828098479306703E330713
:10454000E54063F3E602EFB2BFCABA2388C79146DB
:1045500063F7E6000145EFF0DFF76FB0BFCB05076B
:10456000BAA3EFF0FFF8D5BF8280EFB27FC82A84EC
:104570000145EFF01FF6B79700209387C72911C8B0
:10458000054798B3B7970020094723A6E7346FB0D3
:104590007FC8A3800700E5BF828003288503630BE3
:1045A0000802EFB2FFC4FC5D014791C7050742074F
:1045B00041839C43DDBF83A7050891C705074207D8
:1045C00041839C43DDBF81460146814502980145F8
:1045D0006FB05FC40145828001458280EFB2DFBECB
:1045E0005C42032A85000329C5000049AA84882368
:1045F0009C33B289A2075D8DEF10207D9355650035
:1046000093F5C503B305B0404E85EF20103249E560
:10461000DC44984C03DB8900998F63F867014E8571
:10462000EF20903705456FB0BFBD4A9A4E890356BB
:10463000A900B30A8A40832B490063F4CA04568652
:10464000DE852285EF90A0298357A9009844330482
:1046500044413E942286B3855B013A85EF90202841
:104660002A9403290900E31409FC4E85EF20D03277
:104670009C4C80C8DA979CCC9C4093E747009CC038
:1046800055B72285DE85EF9080258357A9003E949B
:10469000E39957FD8044F1B7014571B771CAEFB294
:1046A000BFB2832BC5001C4D035B8600BA8AB3875B
:1046B000FB40368A32892A8463F767013285EF200E
:1046C000B02D6FB0FFB31C450449B289BE9B03D621
:1046D000A900338C9B4083AC49006377CC0662868B
:1046E000E6852685EF90A01F83D7A9001844B384E0
:1046F0007441BE942686B3858C013A85EF90201EC6
:10470000AA9483A90900E39409FC4A85EF20D028E4
:10471000032884036305080483451A0083470A00BD
:104720001448A205DD8D83472A005A875686C207A2
:10473000CD8F83453A002285E205DD8D02981C4429
:10474000232C04001CC8B5BF2685E685EF902019F0
:1047500083D7A900BE94E39687FB04445DB7184C49
:104760001C4004C85A9793E7470018CC1CC091BF5F
:10477000828018519547631AF70CEFB2FFA41C49C9
:104780002A847D55D9CF328AAE8455CA832A8400C3
:104790005844835B86003289BA9AC20A93DA0A01C6
:1047A0009399070193D90901338B3A410356A90024
:1047B000420B135B0B01032C49006376CB065A8630
:1047C000E2853E85EF90A0110357A9001C44B30574
:1047D0006C0133075741BA99C20993D909013E8543
:1047E0004E86EF90C00FB307350103290900E31986
:1047F00009FA184C1CC852855E9718CC18401367EC
:10480000470018C0EF205019FE38184C2685B38B8E
:1048100077415C44239B7403998FDEB4EF20307C96
:1048200001456FB0FF9D3E85E285EF90400B035739
:10483000A900B307E500E31A67FB1C447DB70145F7
:10484000EDF22E85EF30C042E9BF65558280EFB2B0
:104850009F98B799002003C6018D1387492281478D
:104860009389492293F6F70F63E5C6006D556FB043
:10487000DF9903280702938617001307C703630411
:104880000800B687C5B71309C003338927032E84F0
:104890002A8A1306C0038145B38429012685EFB017
:1048A0003F981305C9021146930544004E95EF90B9
:1048B00000035E3080D8A685DCD083278A0222855B
:1048C0009CD4EF300001B7450000938585592285BF
:1048D000EF302001B7450000938525772285EF2032
:1048E000907FB74500009385A5592285EF20107F62
:1048F000B7450000228505469385855DEF20107F32
:104900008D47DCCC95479CD09C20014593E78700E0
:104910009CC0B1BF19C93305A040B967938707FB95
:104920001375F50F3E950821828001458280EFB214
:104930003F8C9307C003B387F50237940020130719
:1049400044222A89AE841306C003814513044422FD
:10495000BA973E85EFB0DF8C630709001306C003EA
:10496000CA85EF80D0779305C003B385B402A295C2
:104970009C459CC9DCC96FB0FF89EFB2DF852A8AEC
:10498000379500204111AE89B284814561461305F7
:10499000852A36C6EFB0DF88B24637940020130967
:1049A0000432B68519461305C900EF8050731146CD
:1049B000D28513050432EF8090721146CE8513051F
:1049C0004900EF80D07113040432A1E0B707000161
:1049D000FD171CC4814483C7018D63CFF402EF101F
:1049E000803685475CD01567B7970020938747319D
:1049F000130707E298C31167130787A9D8C3254790
:104A000098C7014541016FB05F801146A685130527
:104A10008400EF80D06C7DBF93F5F40F0145EFF07B
:104A20001FF185044DBF1841B79700209387473188
:104A300098C35841D8C3184598C782801855B757AE
:104A40003412938787676310F712EFB2CFF81C51C7
:104A50002A842545638107103799002013064004F6
:104A6000814513050932EFB0AFFBB7940020130660
:104A7000C002814513854436EFB08FFA1306C00299
:104A8000A28513854436EF8090659389443603A749
:104A900049014A869387443625EBB96603D746E435
:104AA000938646E4AE222E97CE22F6222E97369794
:104AB0009316270163D3060AD8CBD84B9356E70049
:104AC000FD8A89EAB746F8FFFD16758FB70605001F
:104AD000558FD8CBD84B93563701FD8A89EAB74614
:104AE000F8FFFD16758FB7065000558FD8CBD84B01
:104AF0009316670063CA0600B70600FEFD16758FA1
:104B0000B7060014558FD8CBD84B9356B70189E61A
:104B1000B7060040558FD8CBD85311E73747000070
:104B20001307E737D8D3D44B014513D7E6007D8B65
:104B30002388D18C9307063298CF13D736017D8B0B
:104B4000130620033307C702D8CF139766006354B8
:104B500007000947B8C36FB04FEBF976FD16758FA4
:104B60008966558F91BF1305F00F8280654582805D
:104B700003C6018DB797002093864722014793878C
:104B800047226317E60081476313F70201458280DD
:104B900003A807036317A80009C50545EDD998A127
:104BA000828005071377F70F9387C703D9BFD05AC1
:104BB0006319A60019C50545F9D993E707F89CA123
:104BC0008280850793F7F70F9386C60375BFEFB210
:104BD0008FE0379900202300050003C7018D4111A4
:104BE000930749228144130949226317970013054B
:104BF000000241016FB06FE19387C70383A647FEB0
:104C000063810618850493F4F40FC5B7B7970020A5
:104C100083A707326C003EC6EF20700B1146930548
:104C2000C4026800EF80B04B6C004E85EF20100C82
:104C30001306C0033386C402B74500009385C55DE3
:104C40004E854A96EF20700C9547379500206C00F2
:104C5000232834031CD013050539EF00D045A68561
:104C60002285EFF0DFCC014569B709476390E70A79
:104C7000EF50D015AA8963030512930AC4021146A6
:104C8000D6856800EF80B045324A370500F0EF1056
:104C9000E016337AAA00370500E0EF102016630013
:104CA000AA04B7950020938505396800EF10205DB0
:104CB0001DE5B797002083A7073212346C004E859C
:104CC0003EC6EF50606D1DE1D68511466800EF804D
:104CD000104152306C004E85EF50100739A012344D
:104CE0009385C1844E85EF50206B01C5EFF09FC2C4
:104CF00009B71306C0033386C402B7450000938585
:104D0000C5694E854A96EF50100C3DBF0D471305FF
:104D10001002E390E7EEEF30A0315C4412346C00F7
:104D20005EB9B797002083A70732AA893EC6EF2055
:104D300010102A8A11C54E85EF20907352857DB7D9
:104D40009305C003B385B4024E85CA95EF20703831
:104D5000B74500004E8593858559EF2090389547DB
:104D6000A685228523283403232A34031CD0EFF0A0
:104D70001FBC379500206C0013050539EF00B033D8
:104D8000DDB504A1DC4DC4C12E84E39007EE0345DC
:104D90008402EF20D000AA89E31A05E6454591BDBB
:104DA000EFB20FC54EB52A84EF20702309CD83479B
:104DB0006402228593E727002303F402EF40104F9B
:104DC00005456FB02FC5B797002083A74737A1834C
:104DD000858BFDD783476402858BFDD38947A30369
:104DE000F402054723AAE18CE1BF83C7018D6376F6
:104DF000F5041307C0033305E502B7970020938736
:104E000047223E95584D232C050050C50CC50CC9B2
:104E10004CC98D476313F702085905C15A399337B6
:104E20001600631CF700EFB2AFBC93150601C181F9
:104E30004EB9EFF0FFF66FB0EFBD8280EFB2AFB9C1
:104E400014426944CDCE23200600328A1306C003E3
:104E50003306C502B794002013874422AA89AE877F
:104E6000938444223297032B8700504703298701FC
:104E7000404B329B63F326013689B30A8B4063F3C0
:104E80002A0981CB3E855686A285EF805025B3073F
:104E900055011307C0033387E9024A943304644180
:104EA0002697832A870091C72286D6853E85EF8084
:104EB000102356949307C003B387F90223202A01D5
:104EC000A697984FC0CB3309274123AC270163181D
:104ED00009009847D8CB98CB98436D9B98C393070C
:104EE000C003B389F9028D470144CE94D84C6318AE
:104EF000F70063160900CE248858EFF07FEA228578
:104F00006FB0AFB091C74A86A2853E85EF80301D55
:104F10004A94E3912AFB9307C003B387F902A6974B
:104F2000804749BFB79700209387472281C913075D
:104F3000C0033307E5023E97584B98C11307C003DF
:104F40003305E502AA97884F8280EFB2EFA70042AF
:104F50002320060055C4AA876945D9C51305C00397
:104F6000B387A7023795002013054522B79A002082
:104F70008144AA9703AB070393870A32BC43938A01
:104F80000A32898B99E39304700C9307805C63F475
:104F900087001304805C931C0401328A2E8993DC01
:104FA0000C01130C800C0146E6850145EF20A0237F
:104FB000AA8929C948412286CA8523AE0A02EF8000
:104FC0001012CE855A85EF20805CAA8B4E85EF208B
:104FD000A01C83A7CA0399CB8504C204C180EFF04B
:104FE000EFB3E39284FD4D456FB08FA163D60B0004
:104FF0005E85EFF03F92CDBF23208A000145EDB7DB
:105000006945DDB74545CDB7EFB20F9C004223207F
:10501000060055C4AA876945D9C51305C003B387DF
:10502000A7023795002013054522B79A0020814436
:10503000AA9703AB070393870A32BC43938A0A32C9
:10504000898B99E39304700C9307005C63F48700E9
:105050001304005C931C0401328A2E8993DC0C013A
:10506000130C800C0146E6850145EF20C017AA8984
:1050700029C948412286CA8523AE0A02EF8030063C
:10508000CE855A85EF50204BAA8B4E85EF20C0105D
:1050900083A7CA0399CB8504C204C180EFF00FA88F
:1050A000E39284FD4D456FB0AF9563D60B005E85EE
:1050B000EFF05F86CDBF23208A000145EDB769453B
:1050C000DDB74545CDB7EFB22F90832906002320E9
:1050D0000600638E090CAA872E8B6945A1C11305B2
:1050E000C003B387A7023795002013054522379ADE
:1050F0000020B28B930A900C8144114C130A4A365B
:10510000FD5CAA9703A90703FD1AC20A93DA0A01F4
:1051100063980A0083A70B00C9CB01456FB04F8E7F
:105120008327090163978709EFF04F9F03576907AA
:1051300019E34545E5B783270A01858B99E3E36ABF
:1051400037FF03244A00637387003A8463F38900BE
:105150004E84131604014182854691E38146DA8527
:105160004A85EF40B00AAA844A858DE4EF401014C6
:1051700083A70B00B3898940AA84A29723A0FB00D0
:10518000229BE38C09F883270A01858BB5FFEFF09A
:105190006FF869B763999401EF40501183270A01B2
:1051A000858BBDF379B7EF4070102685CDB7694583
:1051B000B5B75D45A5B79307C003B307F5023797A9
:1051C000002013074722BA9703A807021547630771
:1051D000E800DD47232006003E858280EFB24F8144
:1051E000D84F8D476318F700EFF0FFEDAA873E8593
:1051F0006FB04F8201E7EFF05FD5CDBF89469307CF
:10520000A00FE316D7FEEFF03FE0CDB7EFA25FFEB1
:10521000A147AA840021638AF50263ECB7008547A1
:105220006381F502894713642400638EF5006FA043
:105230007FFEC147638EF5009307000413640404E6
:10524000EDB71364140080C0DDB713648400E5BFBC
:1052500048591364040165D9EF209021EDB7EFA2FE
:105260003FF941119305F1002A89A3070100EFF0EE
:105270003F9015C5808793178401E18763D40702A7
:105280001374F4071307C0033304E402B797002034
:10529000938747223E94232A0402232004024101DB
:1052A0006FA05FF783C7018DE37BF4FE1307C00394
:1052B0003307E402B79700201385472293844722DF
:1052C0003A95544D0D47E39CE6FC832709010547B9
:1052D000DD1793F7F70F636DF700C145EFF01FF38C
:1052E0009307C0033304F40226942328040275B7FD
:1052F0001C2193E707041CC1E5B73797002083C63C
:10530000018D130747228147638FF6001307C703F8
:10531000032647FC11CEB797002093870732D85752
:1053200013670701D8D7B797002003C5C734828019
:10533000850793F7F70FC9BFEFA29FEBEFF0FFFBD5
:10534000B797002023A607346FA0DFEC83C7018D39
:105350006371F5029307C0033305F502B797002088
:1053600093874722AA9798431375F70F118B98C319
:10537000828001458280B797002003C50734828070
:105380009307C0033305F502B797002093874722A0
:105390003E951C5995CF145115475D45639BE60218
:1053A00085899A279DC1136787009AA737970020A0
:1053B00013074731144323A0D70A5443184723A2A5
:1053C000D70A23A4E70A014582805D9B9AA7E5BF1F
:1053D0005D4582801307C0033307E502B7970020BD
:1053E000938647223697105395466319D604EFA249
:1053F0003FE0045B585B93874722630497005D4757
:105400009DE81304C0033304850226853E94A285DB
:1054100023280402EF20E04B9305F00F2685EF20B0
:105420006032454709C9B755000048D89385E584DF
:10543000EF20804B01473A856FA0DFDD5D473A855D
:105440008280B797002003A5873735810589828040
:10545000B79700209387073205474111C8CB94DBEB
:10546000D0DB8CDFD8D741018280B7970020054779
:1054700023AEE7348280EFA2BFD7B797002003A600
:10548000073783A60182131786016187630B051412
:1054900083C7818D61488948338807033698032381
:1054A000C800631013150343150083480500032843
:1054B000080022033363130183482500C20833E345
:1054C000680083483500E208B3E86800639B081170
:1054D000E207E1873E856FA0FFD3B3885702B698F5
:1054E00003AEC8006319060763170E0613988701F9
:1054F00013588841850793F7F70FE3E0C7FE63175A
:10550000060193F81500FD57E38608FC8989FD57CD
:10551000F1F19377F80F636BC8009377F30F63672C
:10552000C300FD57E378C7FA9377F70F61473387D6
:10553000E702BA9623A6060001CD103118212206F3
:10554000598E38214207598E38316207518F98C2DF
:10555000238806000DA863147E040DC9834E150030
:10556000034E0500A20EB3EECE01034E2500420EFF
:10557000B36EDE01034E3500620E336EDE0183AE84
:1055800008006315DE01238CF18C99B783C80801EC
:10559000E3E2E8F7139787016187468FA1BFE31B1A
:1055A0008EF415C5834E1500034E0500A20EB3EE12
:1055B000CE01034E2500420EB36EDE01034E3500D0
:1055C000620E336EDE0183AE0800E30EDEFB83C89D
:1055D0000801E3E1F8F31393870113538341C68F66
:1055E00011BF3A883A83814F014F8147E142854399
:1055F000094421B7EFA23FBE98319C21368A220789
:105600005D8FBC215441C2075D8FBC31E207D98F49
:10561000639BF60089E6D9573E856FA01FBF0545FD
:10562000EFE0BFF4CDBFE5DB2E842A89AA85228571
:10563000B289EF00D04465F11C300420370500F03A
:10564000A207C58F2420C204C58F2430E204DD8C5C
:10565000EF00C07AE98C370500E0EF00207AE38C98
:10566000A4FAD2852285EFF01FE1AA87E34605FA66
:10567000E147B307F50203A501823E9589475CC562
:10568000232A2501938759001307950094237D173A
:1056900014B39386F7FF6396F9002308050081474A
:1056A000A5BFB687E5B7B797002003A5073703A8BE
:1056B00001820147E14809430546130EF00E63637A
:1056C000A7008280B3061703C2969C2ACC468507A2
:1056D00093F7F70F9CAA63986500636AFE000507BD
:1056E0001377F70FE9BFE39CC5FEE37AF6FE23A626
:1056F0000600F5B721CDEFA2BFAFC4412A84DC3448
:10570000C824A2075D8DEF00606BA1679387071027
:10571000938524016304F5009385E400D835DC25E6
:1057200022075D8FFC25C2075D8FFC35E207D98F0C
:105730005840B98F1844F98F81EB81461386640075
:10574000B1052285EFF01FEB6FA0DFAC8280630311
:105750000516EFA25FA83A26930790024111B2897D
:105760002E8AAA8463E8E7004E85EF10F0224101FB
:105770006FA0BFA9032946008347D9000345C9008C
:1057800013042901A2075D8D152DA16793870710CA
:105790006304F5001304E900834A14001C20054546
:1057A000A20AB3EAFA00192DE390AAFC834A540036
:1057B0005C2013054060A20AB3EAFA000125E395D4
:1057C000AAFA834A34003C200565A20A1305058025
:1057D000B3EAFA00E523E399AAF8930AE400114634
:1057E000D6856800EF80A00FD44013068400ADC2B8
:1057F000183C1C2C22075D8F3C2CC2075D8F3C3C63
:10580000E207D98F6396F60485466C002685EFF093
:105810007FDE054B7C306820A2075D8D45238547E0
:10582000630FF5028947E311F5F46C002685EF104C
:105830002033B797002003A7872AE30707F293874F
:10584000872ADC47E38207F26C002685829729BF0E
:1058500081466C002685EFF0FFD9014B65BFE3055B
:105860000BF00945A12B68A0218168B01146D685AF
:1058700013058401EF80A0061146938544005685E8
:10588000EF80E005350415099547FD5618207D1970
:105890007D1438B4A300E9003307FA001823FD177C
:1058A00018B0A303E900E393D7FE9C4CCE85268570
:1058B00082975DBD8280EFA21F922A89AE89014640
:1058C0009305A0020D45EF1010127D544DC94041C3
:1058D000AA840545E52148A8218148B89306E90234
:1058E000930754001547938541841386C1837D55E2
:1058F00003C80600FD17FD16A38B07013388E500DA
:1059000003480800A38007033308E60003480800A3
:105910007D17A380070103C81600A3830701E319BD
:10592000A7FC1146930549001305C401EF70307BB5
:10593000CE85114613056402EF70707A0545BD29C6
:1059400068A48569218168B413850980852908A820
:10595000218108B813054060952128A8218128B825
:1059600013856980A1298327890148A4218148B42E
:10597000A6854A8582972A842685EF10F001228524
:105980006FA0BF88EFA23F852E842A89AA85228531
:10599000B289EF00D00E01C559556FA01F871C308A
:1059A0000420370500F0A207C58F2420C204C58F4C
:1059B0002430E204DD8C9921E98C370500E03D2993
:1059C000E38CA4FC18301C2022075D8F3C20C2070A
:1059D0005D8F3C30E207D98FE1D385452285EFF01A
:1059E0009FA9E34C05FAE147B304F50203A701823E
:1059F000138A018285472697544799EA5CC7EFF0DE
:105A0000DFA6A2854A85EFF01FEBE38809F831A0F5
:105A1000E387F6FE7D55E38409FE83270A000947E4
:105A2000A697D447E39BE6F603A4490013879700A3
:105A30001306E902930654008D070C237D17FD160B
:105A40008CB20C227D16ECB2E319F7FE0565130546
:105A50000580AD268327890148A4218148B4CE85DD
:105A60004A8582971DBFEFA20FF7AE8441112A89A4
:105A7000B94526853284EF10406B631E0510CA8538
:105A80002285EF00C07F631505101C308349040098
:105A9000370500F0A207B3E7370183492400C209A4
:105AA000B3E7F90083493400E209B3E9F900B92604
:105AB000B3F9A900370500E09126102014303820F2
:105AC0003C30639CA90813958600518D4207598D7F
:105AD000E20785456C845D8D9305E0054C85392E84
