:040000006F00105627
:100004000000000000000000260B0000280B000088
:10001400000000005E0D0000000000000000000071
:100024005E0D00005E0D00000000000000000000F6
:100034005E0D0000000000005E0D000000000000E6
:100044005E0D00005E0D00005E0D0000000000006B
:100054005E0D00005E0D00005E0D00005E0D0000F0
:100064005E0D00005E0D00005E0D00005E0D0000E0
:100074005E0D00005E0D00005E0D00005E0D0000D0
:100084005E0D00005E0D00005E0D0000B60C000069
:100094005E0D00005E0D00005E0D00005E0D0000B0
:1000A4005E0D00005E0D00005E0D00005E0D0000A0
:1000B4005E0D00005E0D00005E0D00005E0D000090
:1000C4005E0D0000AE0600005E0D00005E0D000037
:1000D4005E0D00005E0D00005E0D000000000000DB
:1000E400000000000000000000000000000000000C
:0C00F40000000000000000000000000000
:10010000397101436EC619A0397141536AC866CA74
:1001100062CC5ECE19A0397101535AD056D252D456
:100120004ED64AD826DA22DC06DE330161408282CE
:1001300041114AC026C222C406C68282B24D410184
:10014000024D924C224CB24B4101024B924A224A40
:10015000B2494101024992442244B24041018280A5
:100160003D432A876373C3029377F700BDEFADE584
:10017000937606FF3D8ABA960CC34CC30CC74CC796
:100180004107E36BD7FE11E28280B306C3408A06C3
:100190009702000096966780A6002307B700A30683
:1001A000B7002306B700A305B7002305B700A304D3
:1001B000B7002304B700A303B7002303B700A302CB
:1001C000B7002302B700A301B7002301B700A300C3
:1001D000B7002300B700828093F5F50F9396850052
:1001E000D58D93960501D58D61B79396270097021B
:1001F000000096968682E78086FA9680C1171D8F4A
:100200003E96E374C3F8A5B7B77702409A23136705
:1002100027009AA39A2342074183759B4207418393
:100220009AA3962319672107558F9AA313874187AD
:10023000420741839AABD8231377E70FD8A313075C
:100240007007BAA3D82313672700D8A3B7E700E045
:100250003707020023A2E7108280138781851C2FB5
:1002600093F7F7FC93E707031CAFB7770240130738
:10027000400ADAA7FAA7828093878185982F13779F
:10028000F7FC98AFB77702401307200ADAA7FAA75E
:100290008280EFF2FFE993878185130700F8D8ABDE
:1002A0009A2FFD76938606FB758F136787049AAFA6
:1002B000238407002385070023970700239907005D
:1002C00023A00700593F893771B5EFF27FE641114E
:1002D0008545414502C202C402C6EF00D05485459F
:1002E0000545EF005054854537050200EF00D05119
:1002F000B16705443EC24C0091473715014022C406
:100300003EC6EF00F02E370701401C4F714693E7C1
:1003100007301CCFB777024021479AA3715798B78F
:100320008145138581852D3D13858183B705002087
:1003300011469385050900A10505EF00F07C913F6A
:10034000E135410101BDEFF2BFDE83D70187B7740C
:100350000240898BE1C3DE240945C207C18393F7BC
:10036000E7F1C207C183DEA4DE2493E70704DEA41D
:10037000EF007067C224DE2409450588C207C183E7
:1003800093F7E7F1C207C183DEA4DE2493E7070AEF
:10039000DEA4FE24C207C18393F7E7F1C207C1833D
:1003A000FEA4FE2493E70704FEA4EF00D063FE241E
:1003B000FA24858B420741831377E7F14207418393
:1003C000FAA4FA241367070AFAA43717014018475A
:1003D0009316170163D40600136404043717014011
:1003E00018479316070163D4060093E70704B7760E
:1003F0000240DA26098B19C30145A9BB9A22118B49
:1004000011C793F70704EDFB0945C5BF1345040465
:100410001981E5B7DE240945C207C18393F7E7F1E7
:10042000C207C183DEA4DE2493E70704DEA4EF0045
:10043000905BC224DE2409450588C207C18393F777
:10044000E7F1C207C183DEA4DE2493E7070ADEA436
:10045000EF007059DE24858B99C313648400B717AD
:1004600001409C4713971701635407001364040469
:10047000377902408357E9000945C207C18393F7E2
:10048000E7F1C207C1832317F9008357E90093E717
:1004900007042317F900EF0010558354E900835730
:1004A000E90009458588C207C18393F7E7F1C207D0
:1004B000C1832317F9008357E90093E7070A23173D
:1004C000F900EF0050528357E900858B99C393E4FC
:1004D0008400B71701409C47139707016354070036
:1004E00093E40404B7770240DE27898BE39607F094
:1004F0009377840421470145639BE70093F7040445
:10050000054591E713F594007D151335150093F417
:100510008404A147E393F4EEE31005EE937794008F
:1005200005476393E700094513740404E30704ECEB
:10053000E1BDEFF2FFBF013D138781851E2FAA8524
:1005400093F6270085CA01C52305070021B134278A
:100550001146850693F6F60F6364D60034A7FDB7FF
:1005600093F6D7FF2305070016AF918BE5F3854778
:100570001CC3E9BF1384818509C938249146050746
:100580001377F70F63E5E600BA852CA4C1B793E7AC
:1005900027001EAC23050400918BCDFB85473777E0
:1005A0000240631CF5021E23C207C183ED9BC207F4
:1005B000C1831EA3377702405E27898B81E77E27A0
:1005C000898B85C38947372500001CC01305055753
:1005D000EF00B05E2317040095BF1E2393E747008A
:1005E000C9BFAD47372500001CC013054558CDB71E
:1005F000B77702409A23118B51CFFA27136707016F
:10060000FAA7B77702401307F004C205BAA3C18165
:100610008EAB4206D4B34182F2A3D82313671700EE
:10062000D8A39837A3840700D82313672700D8A33B
:100630002DC1983762076187E35D07FE983713671E
:10064000070898B79A23118B39CBFA2742074183C1
:100650003D9B42074183FAA7B77702409A2313676D
:1006600027009AA39A2342074183759B420741833F
:100670009AA3D8231377E70FD8A31387418742079C
:1006800041839AAB13077007BAA3D82313672700D7
:10069000D8A38280DA2713670701DAA79DB7DA2784
:1006A000420741833D9B42074183DAA775B7B7777D
:1006B00002409837411122C61377070225C79837A1
:1006C00085461367070298B798370D8B631CD704CC
:1006D000B62715466378D604BE279946138441870A
:1006E0006396F6001C20FD8B638EE7027945EF00D0
:1006F000902F938601829307100603A701879CA27F
:100700001C301583058BB98BD98F9CB2377702408B
:100710001E23A1660946D58F1EA3814693850182BB
:100720000145F935B7770240983762076187635012
:100730000704DA27B7060200420741833D9B4207C0
:100740004183DAA7FA27420741833D9B4207418351
:10075000FAA737E700E02322D71813878185162FE1
:1007600093E6160016AF98371367070898B7B77760
:10077000024098371377070401CF983713670704AF
:1007800098B7DD3C3725000013050563EF003054B2
:100790003244410173002030EFF21F9713878189A3
:1007A000143393D725009207D58F1CB3814793F656
:1007B000F70F0507639ED5068905114993F4F50FD8
:1007C000377A0240994A7D191379F90F630E0904AB
:1007D000B7E700E03707020023A2E7188146268624
:1007E00093858189054529351304A00F854B7D1418
:1007F0001374F40F69D883479A0093F707029DCFCB
:1008000083479A0093E70702A304FA008357AA00DC
:100810006396FA0283C74187FD8B639177039387C1
:1008200081859827090798A7C5321335190009BA99
:10083000B306F5009422850714B395BF0D45EF006C
:10084000901A75B793868185962E238CB18813F6FE
:100850008600938781891387818501C693E5050208
:100860008CA303C8070013F606049365080419C295
:100870009365080818278CA3C18A398B81EA98B33D
:1008800009C59833136707F898B382801367170078
:10089000FDB793F7350091EBF146854763E8B60065
:1008A000EFF21F89D53D6FF0FF8A85473E85828034
:1008B00011CE7D150A052E951C311821A207BA9775
:1008C00093F7F73F2947B387E7021EA28280EFF232
:1008D0003F8613878185362B83C73182B54441110A
:1008E000BE9636AB184313848185630F971063E37C
:1008F000E404AD46630CD70A63EBE60C8547630E50
:10090000F7081E2C858B6381071A938441879C20EE
:10091000230B04000D47FD8B6389E7166367F7140B
:1009200009476386E7183725000013058561EF0046
:10093000103AA5A2C9446307970E63ECE402BD46D2
:10094000E311D7FC7A24BA97C207C1837EA4094772
:10095000E379F7FA8D450145F535814501452D3D92
:100960005DED372500001305455CEF00503604C0EF
:1009700049A8FD476300F70E93070002E313F7F859
:100980001E2C9306900A014693E7470081450545D2
:100990001EACB939EFF05F875DA83725000013055D
:1009A0008559EF00D032EFF0DF8EA1BF7A24BA97DD
:1009B000C207C1837EA41307F009E374F7F41E2C69
:1009C00023170400ED9B1EACB1471CC01DBF7A2449
:1009D000BA97C207C1837EA41307F009E373F7F245
:1009E00085450145853537050020B14513050500CE
:1009F000653301E9372500001305455A04C0EF00AF
:100A0000102D23170400F5BD7A24BA97C207C183BD
:100A10007EA47547E377F7EE930700027DB7FD47A5
:100A20001CC0C5B77A24BA97C207C1837EA44D47BC
:100A3000E379F7EC99450145313581450145A93BFD
:100A400079FD372500001305C55CEF0050282320F1
:100A5000040045BFB5450145F533814501452D3BB2
:100A60003335A000160508C069BF31476387E70228
:100A70003547E39AE7EA0545EF00407A8D450145A1
:100A8000D13381450145313509A8184023170400A9
:100A900099476314F700A5471CC0EFF0EFF61E2C32
:100AA00023190400F99B1EAC41016FF0AFEA372512
:100AB00000001305855DEF0090210945EF000076E9
:100AC000CC30372500001305855E91859D890CA8E3
:100AD000EF00B00E1C281947FD1793F7F70F637549
:100AE000F700930700024DBF1306E1009385240031
:100AF00005457D3B2C873725000013054560EF0039
:100B0000D00B9C201A2C2317040093F7070C938713
:100B100007F893B717009A071377F7FBD98F1EAC26
:100B2000BD471CC09DBF01A001A0EFF26FE0AA84E9
:100B3000056501112E8413050580854502CA02CC86
:100B4000231E010002C602C8F929E08237340140A1
:100B50004C08130504C0E484231D0100231B01007D
:100B6000230E0100FD298545130504C07923930751
:100B700030027C868D475C87680085473EC8E52E3D
:100B80000546130504C08545A1238545130504C00A
:100B9000252305616FF00FDCEFF28FD94111930728
:100BA00000033EC237150140C1473EC64C00854791
:100BB000130505803EC42D2C41016FF0AFD9EFF233
:100BC0008FD505457526B92AD52B37150E00512529
:100BD000B707002083A547093725000013050564E2
:100BE000EF00A07D0924AA853725000013050565BF
:100BF000EF00A07C3725000013050566EF00300DDF
:100C0000EFF0AFEC9305F0021305703EB7340140EE
:100C1000293F938404C0493713848185914A014652
:100C200085452685752103C7418283C721820546F4
:100C30008545B307F7402685A381F1822381E182B0
:100C400041291C3403C73182BA9793F7F70F63EA3F
:100C5000FA021CB4AD391C2809476389E7020D4725
:100C60006382E704371B01400547C14513050B802C
:100C70006391E704E52C9305000213050B80C5245E
:100C800079BFA3040400EFF0DF8AE9B7371B014006
:100C9000C14513050B80E1249305000213050B8069
:100CA000F124B5BF371B0140C14513050B807D2CD6
:100CB000E5B77524C9B7411122C6373401408545CF
:100CC000130504C0392911C99387418298238545AA
:100CD000130504C0050798A30D2132444101730098
:100CE0002030B71702409843B70600F99386F6F50F
:100CF0001367170098C3D84313670705D8C3D843B1
:100D0000758FD8C3372702401443F19A14C3144394
:100D100093E6260014C3D8431377F7F0D8C3D8431B
:100D2000D8C38280B7160240DC42918313F7F700E4
:100D3000B70700209387C700BA979C23D442377720
:100D4000DC0293F7F70F130707C093F60608335634
:100D5000F70099E23356F70223A2C180828001A0F6
:100D600097010020938101B31741002013018129CD
:100D7000172500001305C59997F5FF1F9385852852
:100D80001386018263FAC5008322050023A0550063
:100D900011059105E3EAC5FE138501829385018C57
:100DA0006377B500232005001105E36DB5FEFD4214
:100DB000739002BC8D4273904280930280087390BE
:100DC000023097F2FFFF9382222493E23200739065
:100DD0005230EFF01FF197020000938282DE739091
:100DE000123473002030B7F7FF1F03A547708280CD
:100DF0009845937707011378F70081C7DC41336882
:100E0000F8009441814713F6F60F39C21C410146A0
:100E1000854E3D4F930F800293028004214EB3987C
:100E2000CE00B3F516016391B80213132600B31573
:100E30006F0093C5F5FFED8F33136800B367F300C0
:100E40006317F70D232A15010506E31AC6FD1CC119
:100E50004166130606F0758E3DC2371601409305B4
:100E60000680631BB50A83A78180A145854E3D4F4F
:100E7000930F800293028004414E3393BE0033F6F9
:100E800066006312C302139625000116B318CF0043
:100E900093C8F8FFB3F7F8003316C800D18F631971
:100EA000F709232A65008505E399C5FD371601403A
:100EB0005CC1930506806312B50823A4F180C16765
:100EC00063E6F604504D8147054E3D4F930F800277
:100ED00093028004A14E93850701B315BE00B3F8B9
:100EE000B600639115039398270033131F01134332
:100EF000F3FF3376C300B318180133E6C800631A52
:100F0000F7054CC98507E398D7FD50CD8280E31DD6
:100F100057F2232815010DBF930506C06315B500D0
:100F200083A7C18099B7E312C5F483A7018135BFB8
:100F3000E31B57F623286500BDB7930506C063156C
:100F4000B50023A6F180A5BFE31BC5F623A8F18059
:100F5000BDB7E31957FAB315FE000CD165B79397E7
:100F60000501C1831CC9C1810CD182804CC982801A
:100F700023A4A182828003A7818285471421631064
:100F8000F7021C31639CE7023C21960793E707F8C0
:100F900037E700E093F7F70F36972300F740054750
:100FA00093D756003317D700544189CE938707044F
:100FB0008A07B7E600E0B69798C38280EDF33C213C
:100FC0009607F9B793870706E5B7B777DC029387EB
:100FD00007C01CC137160240584211839376F700B0
:100FE000370700201307C70136971423504293F6A2
:100FF000F60F1376060833D7D70019E233D7D70296
:1010000058C118C558C5828099C5371702405C4B36
:101010005D8D48CB8280B7170240D84B1345F5FF52
:10102000798DC8CB828099C5371702401C4F5D8DE2
:1010300008CF8280B7170240984F1345F5FF798D8E
:1010400088CF828099C5371702405C4F5D8D48CFAD
:101050008280B7170240D84F1345F5FF798DC8CF6E
:1010600082801E2137370140130707C0C207C183A2
:101070006306E500370700406316E500BA2193F7E1
:10108000F7F8D98FFA2193F7F7CFC207C183D98F29
:101090001EA1DE215EB59E211EB5B73701409387A4
:1010A00007C06306F500B70700406314F5009C25F0
:1010B0001EB985475EA982801E2189C593E7170066
:1010C0001EA18280C207C183F99BC207C183CDBF25
:1010D0005E2501C6DD8D4EA5828093C5F5FFFD8D91
:1010E000DDBF1E294A25ED8F4205418189C76D8DDF
:1010F0003335A00082800145828093C5F5FFC2058B
:10110000C1810EA98280EFF2AF821629F577FD1713
:10111000F58FF621DA250111D58F1EA95625FD7709
:101120009387379FF58FD6212A842EC6D58F962593
:10113000D58FB625D58F5EA55E29C207C18393F7EB
:10114000F7CFD98F5EA908084935B7470140938783
:101150000780B245631EF402F2476547B387E70292
:101160009841930640060A07B3D7E70233D7D70260
:10117000B3F7D7021207920793872703B3D7D70293
:10118000BD8BD98FC207C1831EA405616FE09FFC90
:10119000E247E1B791C55E250967D98F5EA58280D8
:1011A0005A25F977FD17F98FD5BF93F5F51F4EA195
:1011B00082800A216D8D3335A0008280B707002020
:1011C00083A7470937177A0013070720B3D7E70229
:1011D00093F7F70F2387F1821307803EB387E70267
:1011E0002396F1828280B7F700E0D8438146799B4D
:1011F000D8C303C7E1823306A70290CBD4CB984370
:101200001367070198C398431367170298C3D8431D
:10121000058B75DF9843799B98C38280B7F700E010
:10122000D8438146799BD8C303D7C1823306A7022E
:1012300090CBD4CB98431367070198C398431367A7
:10124000170298C3D843058B75DF9843799B98C3E1
:101250008280EFE2FFED01112A8485453705020007
:10126000D53385451145C13391473EC237150140FD
:1012700085473EC44C00E147130505803EC68D3EC0
:1012800022C837440040B70708000C081305044083
:101290003ECC02CA231E0100BD358545130504401E
:1012A000D53D05616FE01FEBEFE2FFE6B74400407C
:1012B000AE893289014493840440634524014A8500
:1012C0006FE0BFE8930500042685E53565DDB3874B
:1012D00089008385070026850504C205C181F13593
:1012E000E9BF138741811C439386018C3E95636B54
:1012F000D500B75600209386068063E5A60008C394
:101300003E858280FD57EDBFB3C7A5008D8B3307A7
:10131000C50081E78D4763EDC700AA87637EE508B6
:10132000942185078505A38FD7FEE3EBE7FE828036
:1013300093763500AA8789CA942185078505A38FEE
:10134000D7FE93F63700C5BF9376C7FF138606FE18
:1013500063F0C70683A3050083A2450083AF850021
:1013600003AFC50083AE050103AE450103A38501AC
:1013700083A8C5019385450223A0770003A8C5FF74
:1013800023A2570023A4F70123A6E70123A8D7012E
:1013900023AAC70123AC670023AE17019387470236
:1013A00023AE07FF75B790419107910523AEC7FEA5
:1013B000E3EBD7FEE3E6E7F6828039713EDA2ED220
:1013C00032D436D63AD842DC46DE9387818122CCAD
:1013D000804326CA06CEAA8409C41C4C99E3228500
:1013E000ED290C4454102686228536C6EF00701273
:1013F000F2406244D24421618280011126CA4AC867
:1014000006CE22CC4EC652C4AA842E8901C51C4DDC
:1014100091E3E1219C4C804499E326857D2997172F
:10142000000093872727631BF402C0405E24A18B32
:10143000B1C71C48A1C7FD59294A1C44834509006E
:10144000FD17B1E91CC463DD07062286A945268580
:101450006120FD576308F502294535A09717000064
:10146000938747256314F4008044C9B79717000099
:1014700093874720E31CF4FAC0444DBFA28526851C
:10148000112A55D97D55F2406244D2444249B249AD
:10149000224A056182801CC4050963D70700184CE5
:1014A00063CAE700638845011C401387170018C012
:1014B0008CA361B7228626850520E31035F9D9B7BC
:1014C0001C401387170018C0294798A371B793874A
:1014D0008181AA85884315B7011122CC26CA4AC842
:1014E00006CE4EC6AA842E89328401C51C4D91E3D6
:1014F000ED26971700009387E7196317F406C0409D
:101500001C4C1CC45E24A18BC1C31C48B5CF1C4815
:1015100008409379F90F1379F90F1D8D5C486346E4
:10152000F500A2852685692C25E51C440505FD17D7
:101530001CC41C401387170018C0238037015C4867
:101540006388A7005E24858B81CBA9476316F900C9
:10155000A2852685B5240DEDF24062444A85D24429
:101560004249B2490561828097170000938787142A
:101570006314F400804469B7971700009387870FBE
:10158000E310F4F8C044ADBFA2852685212041D1E7
:101590007D59D9B741119387818126C2844322C4E2
:1015A0004AC006C62A892E8489C49C4C99E32685A4
:1015B0002D26971700009387E70D631BF402C040A8
:1015C0000317C40093170701C18393F68700ADEAA0
:1015D00093F6070195EEA5472320F900136707044A
:1015E0005AA47D55B240224492440249410182806E
:1015F000971700009387070C6314F4008044C9B761
:101600009717000093870707E31CF4FAC0444DBF07
:10161000918B9DC34C5889C9930744046384F5009A
:101620004A853123232A04025E242322040093F7EF
:10163000B7FD5EA41C481CC05E2493E787005EA42F
:101640001C4899EB5E241307002093F70728638555
:10165000E700A2854A85A1215E2413F717001DC368
:101660005C4823240400B307F0401CCC1C4801450F
:10167000B5FB8317C40013F707082DD793E70704BA
:101680005EA485B7898B014791E3584818C4F9BF18
:10169000DE25011122CC26CA06CE4AC84EC613F753
:1016A0008700AA842E8479EBD841634DE000B841CD
:1016B000634AE0000145F2406244D2444249B249E3
:1016C0000561828058547DD703A9040093963701A1
:1016D00023A0040063DB060670485E24918B99C743
:1016E0005C401D8E5C5899C33C401D8E5C540C5070
:1016F000814626858297FD575A24631DF500944044
:10170000F54763E8D706B70740208507B3D7D7006A
:10171000858BA5C31C48232204001CC093173701E6
:1017200063D80700FD576314F5009C4091E368C837
:101730004C5823A02401BDDD930744046384F500C5
:101740002685F526232A0402B5B70C5001468546A6
:1017500026850297FD572A86E311F5F89C40B5DFF0
:1017600075476385E70059476393E70423A0240185
:1017700091B7136707045AA47D5535BF83A90501A6
:10178000E38A09F203A905008D8B23A035013309F3
:101790003941014791E3D84918C4E35D20F11C5455
:1017A0000C50CA864E86268582976347A0005E2429
:1017B00093E707045EA4C9B7AA993309A940F1BF0A
:1017C0009C49B9CF011122CC06CE2A8411C51C4DEB
:1017D00081E72EC61922B24597170000938787EB41
:1017E000639BF5004C408397C50095C722856244F2
:1017F000F240056171BD971700009387A7EB6394D2
:10180000F5000C44CDB7971700009387A7E6E39C3B
:10181000F5FC4C44C9BFF240624401450561828039
:1018200001458280411122C406C62A844EA572A5B4
:10183000232005002322050023240500232205067A
:1018400023280500232A0500232C05002146814575
:101850001305C505EFE0DF9097170000938767B188
:101860005CD097170000938787B31CD497170000AC
:10187000938767B75CD4971700009387C7B900D0E8
:101880001CD8B24022444101828097050000938514
:1018900065F3A9A2411126C2130680069384F5FFC1
:1018A000B384C4024AC02E8922C406C69385440765
:1018B0001D262A8401CD2320050023222501310580
:1018C00008C4138684068145EFE09F892285B240D3
:1018D000224492440249410182801C4DADE34111F2
:1018E00006C622C497070000938767FA1CD5938722
:1018F000C1819C43232405042326050423280504D1
:101900006314F50085471CCD2A841D2848C0228514
:10191000052808C422852D2048C448400146914529
:10192000113708440546A545F53D48440946C945D3
:10193000D53D85471CCCB240224441018280828043
:1019400041119387C18126C284434AC006C69C4C7C
:1019500022C42A8999E326854937938484048044E4
:10196000DC40FD1763D607009C40B9CF8440C5BF5B
:101970000317C40039E7C177850723220406232013
:10198000040023220400232404005CC42328040050
:10199000232A0400232C0400214681451305C40595
:1019A000EFE00FFC232A0402232C04022324040466
:1019B000232604042285B240224492440249410174
:1019C00082801304840671BF91454A85E13588C041
:1019D00051FDB1472320F9000144E9BF797122D4B8
:1019E0004AD052CC56CA5AC85EC606D626D24ECE69
:1019F0002A8AAE8A130485040149054BFD5B09EC74
:101A0000B25022544A8592540259F249624AD24A4B
:101A1000424BB24B45618280044483294400FD1946
:101A200063D409000040E1BFDE24637BFB008397A1
:101A3000E40063877701A6855285829A3369A900FD
:101A400093848406E9BF1971A6DAAE848395E50014
:101A5000A2DC86DE328463DB0500DE2423A00600E0
:101A600093F7070885E7930700401DA0300836C6A6
:101A7000EF00F01FB246E34205FE7247BD67F98FE3
:101A80007977BA9793B717009CC2F1BF9307000408
:101A90001CC0F6506654D654014509618280DE258B
:101AA000011122CC06CE26CA4AC8898B2E8489CF42
:101AB000930774041CC01CC885475CC8F24062448C
:101AC000D24442490561828074003000AA84A53F57
:101AD000A2452A892685012219E98317C40013F734
:101AE000072069FFF19B93E727005EA4D1B7970712
:101AF00000009387C7D99CD45E2408C008C893E728
:101B000007085EA4A2475CC8B24781CF8315E400F2
:101B10002685EF00701811C55E24F19B93E717002E
:101B20005EA45E243369F9002316240141BFDDC1A0
:101B300083A7C5FF411122C406C626C21384C5FF70
:101B400063D307003E94AA84EF00D01B93870183E0
:101B50009C4381EF2322040023A881822244B240C7
:101B60002685924441016F00101A637EF4001440F0
:101B70003307D4006396E7009843DC43369718C0D8
:101B80005CC0D9BFBA87D84319C3E37DE4FE944350
:101B90003386D700631F86001040B29694C3338605
:101BA000D700E31DC7FA10435843B29694C3D8C375
:101BB00075B76375C400B1479CC04DB71040B306FC
:101BC000C4006316D70014435843B29614C058C0DB
:101BD000C0C369B78280011126CA93843500F19889
:101BE00006CE22CC4AC84EC6A104B14763F3F40422
:101BF000B14463E2B4042A89EF00D01093870183D3
:101C000098433A8439E0938741839C4391E7814527
:101C10004A850D2F23AAA182A6854A852527FD592D
:101C200063193507B1472320F9004A85EF00B00D4D
:101C300029A0E3D004FCB1471CC10145F240624435
:101C4000D2444249B249056182801C40858F63CFEE
:101C50000702AD4663F6F6001CC03E9404C031A0F6
:101C60005C406313870223A8F1824A85EF00B00924
:101C70001305B4009307440061993307F5405DDF15
:101C80003A94898F1CC05DBF5CC3C5B722874040B2
:101C900095BF130435007198E30285FCB305A44099
:101CA0004A854D25E31C35FBB5BF1C46FD171CC6F8
:101CB00063DA0700184E63C5E700A9476394F5008F
:101CC0006FF09F811C422E851387170018C28CA3CA
:101CD0008280011122CC26CA4AC84EC652C406CE02
:101CE0002A89AE893284B304D6007D5A63149400E5
:101CF000014501A80C204E864A85453F0504E3179F
:101D000045FFF2406244D2444249B249224A056149
:101D10008280357122CD26CB4AC94EC706CF52C527
:101D200056C35AC1DEDEE2DCE6DAAA89AE84328925
:101D3000368409C51C4D99E3EFF03FBA97170000B0
:101D4000938747956397F40C83A44900DE24A18B05
:101D5000FDC39C48EDC393070002A304F10293075F
:101D6000000302D22305F10222C6930B5002971AF8
:101D70000000938A2A96054C294B4A841C2099C35B
:101D8000639E770DB30C2441638D0C00E6864A8672
:101D9000A6854E853D3FFD57630FF51C9256E6968E
:101DA00036D21C206389071CFD571309140002C892
:101DB00002CE3ECA02CCA309010482D483450900A5
:101DC00015465685252713041900C24751E913F714
:101DD000070109C713070002A309E10413F78700ED
:101DE00009C71307B002A309E104834609001307DA
:101DF000A002638FE606F2474A84814625461820F2
:101E000093051400130707FD6377E60AB5CA3ECEB3
:101E100085A8971700009387E7896395F40083A44A
:101E200089002DB7971700009387C784E390F4F2D9
:101E300083A4C90021BFA6854E85EFF0AFF501DD73
:101E40007D55FA406A44DA444A49BA492A4A9A4ACC
:101E50000A4BF65B665CD65C0D618280050439BF77
:101E6000330555413315AC00C98F3EC82289B9B737
:101E7000324793064700184336C6634707023ACEF7
:101E800018209307E002631DF70418309307A0029F
:101E9000631BF702B2470904138747009C433AC605
:101EA00063C107023ECA2DA83307E04093E727002D
:101EB0003ACE3EC8F1B7B387670385462E84BA97FA
:101EC0003DBFFD57C5B7050402CA81468147254677
:101ED000182093051400130707FD6374E606F9F252
:101EE0000C200D46170500001305457F012511CD77
:101EF000970700009387877E1D8D93070004B39793
:101F0000A700424505045D8D2AC80C201946170517
:101F100000001305E57C130914002304B102F92322
:101F200035C197E7FFFF9387E70D95E74247B24733
:101F30001377071009CF91073EC69257D2973ED22A
:101F40002DBDB387670385462E84BA9751B79D0789
:101F5000E19BA107D5B77800970600009386A6D726
:101F600026860C084E8597000000E7000000FD570C
:101F70002A8AE314F5FCDE2493F70704E39207ECC6
:101F80001255C1B57800970600009386C6D4268600
:101F90000C084E85012AE1BF797156CA9C49BA8A5C
:101FA000984522D426D24ECE52CC06D64AD05AC814
:101FB0005EC6AA892E84B284368A63D3E700BA87C4
:101FC0009CC00347340419C385079CC01C4093F789
:101FD000070281C79C4089079CC00329040013792C
:101FE0006900631A0900130B9401FD5B5C4498407F
:101FF000998F634CF9041C408346340493F707021D
:10200000B336D000A5EB13063404D2854E85829AF0
:10201000FD576303F5041C4011469840998B5444C6
:1020200081446397C700B384E64063D304008144CE
:102030001C4418486354F700998FBE940149690401
:102040007D5B63982405014509A885465A86D2859B
:102050004E85829A631E75017D55B250225492546A
:102060000259F249624AD24A424BB24B45618280E0
:102070000509ADBF3307D40013060003A301C7044D
:102080000347540493871600A2978906A381E704A7
:102090009DBF85462286D2854E85829AE30E65FBDA
:1020A000050945B7797122D426D24AD04ECE06D63C
:1020B00052CC56CA5AC8B689942D930790063289D5
:1020C000AA842E8413863504638DF60263E2D70654
:1020D000930780056385F61863EDD700638D0620AE
:1020E00093073004638EF60A930A24042301D40470
:1020F000C9A0930730066385F60A93074006E39567
:10210000F6FE1C40084393F6070893054500C5C634
:102110001C410CC363D807001307D002B307F0407B
:10212000A301E404970600009386065C294765A88E
:10213000930700076381F61663E5D7029307E0066D
:102140006388F6189307F006E390F6FA0C401C43F8
:1021500013F80508138547006307080608C39C4366
:1021600085A893075007E383F6FE930780076388EB
:10217000F61293073007E399F6F61C43D0418145E8
:102180009386470014C383AA07005685852601C598
:102190003305554148C05C401CC8A301040461A834
:1021A0001C43930A2404938647009C4314C32301D1
:1021B000F4048547D5B793F607041C410CC3B9DA7C
:1021C000C207C18781BF93F5050408C3C9D99E23FF
:1021D0001307F0066386E60E970600009386C65046
:1021E0002947A30104044C400CC463C50500084002
:1021F0006D9908C099E3B28A89CDB28AB3F5E70236
:10220000FD1AB6958C212380BA00B3D5E70263FF8F
:10221000E70AA147631EF7001C40858B91CB58400D
:102220001C4863C7E70093070003A38FFAFEFD1A5B
:102230003306564110C84E87CA867000A28526858F
:10224000A13B7D5A631D450B7D55B25022549254DB
:102250000259F249624AD24A424B45618280A382C6
:10226000D50497060000938626480C40084313F8CF
:1022700005081C411105630D080208C313F715007A
:1022800001C793E505020CC04147A1FF0C4093F53F
:10229000F5FD0CC0B9B79C4193E707029CC19307B9
:1022A0008007A302F404970600009386264575BFB5
:1022B00013F8050408C3E30308FCC207C1837DBF0C
:1022C0009706000093864642214721BFAE873DB75F
:1022D00094411C43CC4913F8060813854700630654
:1022E000080008C39C438CC339A008C393F60604B6
:1022F0009C43F5DA8EA323280400B28A2DBF14482C
:102300005686CA8526858299E30045F51C40898B4F
:102310008DE7B2474844E35AF5F23E853DB785461E
:102320005686CA8526858299E30065F3050A5C44D2
:102330003247998FE345FAFEE9BF014A930A9401B7
:102340007D5BF5B7411122C42A842E8523AE018A14
:1023500006C6EFE01FF9FD576317F5009387C18BA1
:102360009C4391C31CC0B240224441018280411170
:1023700022C42E848395E50006C6792263490500B0
:102380007C48AA977CC8B2402244410182805E24E6
:102390007D777D17F98F5EA4FDB7DE25011122CC74
:1023A00026CA4AC84EC606CE93F70710AA842E84C2
:1023B0003289B68991C78395E5008946014609228D
:1023C0005E247D777D17F98F5EA48315E400624457
:1023D000F240CE864A86B24942492685D2440561FA
:1023E00025A8411122C42E848395E50006C6C9287C
:1023F000FD575A24631AF500FD77FD17F98F5EA487
:10240000B2402244410182808567D98F5EA468C8AA
:10241000C5BF8395E50005A8411122C42A842E85F5
:10242000B285368623AE018A06C6EFE0FFE7FD5788
:102430006317F5009387C18B9C4391C31CC0B240C6
:10244000224441018280411122C42A842E8523AE78
:10245000018A06C6C520FD576317F5009387C18B17
:102460009C4391C31CC0B24022444101828041116F
:1024700022C42A842E85B28523AE018A06C6C920CD
:10248000FD576317F5009387C18B9C4391C31CC014
:10249000B240224441018280411122C42A842E8507
:1024A00023AE018A06C65D20FD576317F5009387AA
:1024B000C18B9C4391C31CC0B24022444101828025
:1024C000411122C42A842E85B285368623AE018A24
:1024D00006C65920FD576317F5009387C18B9C43AF
:1024E00091C31CC0B24022444101828093F5F50F94
:1024F0002A966314C500014582801C21E38EB7FE35
:102500000505C5BF82808280411122C42A842E85A0
:10251000B285368623AE018A06C6A920FD57631709
:10252000F5009387C18B9C4391C31CC0B2402244E9
:10253000410182809307800523AEF18A7D55828018
:102540009307800523AEF18A7D558280930780052D
:1025500023AEF18A014582809307800523AEF18A7C
:102560007D5582809307800523AEF18A7D55828058
:10257000434325642053524320436F6E6E6563745A
:102580000D0A0000434325642053494E4B20436FFE
:102590006E6E6563740D0A00446973636F6E6E65D9
:1025A00063740D0053656E6420536F75726365200C
:1025B000436170205375636365737366756C6C79E2
:1025C0000D0000004163636570740D00505320726C
:1025D000656164790D00000048616E646C6520528D
:1025E0006571756573740D00202052657175657392
:1025F000743A0D0A202050444F5F4964783A2564AC
:102600000D0A0000202043757272656E743A2564CD
:10261000206D410D0A000000556E737570706F7269
:1026200074656420436F6D6D616E640D0000000081
:1026300049465F52585F52455345540D0000000013
:1026400053797374656D436C6B3A25640D0A000011
:102650004368697049443A253038780D0A00000013
:1026600050442053524320544553540D0000000061
:10267000000000000000000000000000000000005A
:10268000000000000000000000000000000000004A
:10269000000000000000000000000000000000003A
:1026A000000000000000000000000000000000002A
:1026B000000000000000000000000000000000001A
:1026C000000000000000000000000000000000000A
:1026D000232D302B20000000686C4C006566674598
:1026E00046470000303132333435363738394142CD
:1026F000434445460000000030313233343536372C
:0C27000038396162636465660000000007
:10270C002CC1033E2CD1023E2C91013E010203044C
:10271C000506070801020304050607080102030465
:10272C00050607080102030405060708000000005F
:10273C0090260000B026000070260000000000006B
:10274C00000000000000000000000000000000007D
:10275C00000000000000000000000000000000006D
:10276C00000000000000000000000000000000005D
:10277C00000000000000000000000000000000004D
:10278C00000000000000000000000000000000003D
:10279C002C91013E006CDC024444444444444444C7
:1027AC0044444444500100202C0000202C00002004
:00000001FF
